HDR00174-2860973   26-4568855   668-00-0000  080411                                                                                                   
INS010011000726917     JOHN ROBINSON                 3420    AVENUE H APT 5P                                     BROOKLYN             NY112100000     
INS021000726917     JO A ROBINSON                 3420 AVENUE H APT 5P                                                                                
INS031000726917     BROOKLYN             NY1121000003477423509H7189541430O           0108094              48-1273715 0000605174                       
INS041000726917     00000062918150000003547500000070973120000001525908LUSIAB01      EL1            A                                                  
INS051000726917     ADDED U TO MAN CODE INCLUSION                                                      018                                            
INS010011001063765     MICHAEL B REYNIK                 225N MADISON AVE                                         CHERRY HILL TOWNSHIP NJ080020000     
INS021001063765     JOANN REYNIK                  225 N MADISON AVE                                                                                   
INS031001063765     CHERRY HILL TOWNSHIP NJ0800200008567550484H0000000000O           010507303364078191   52-0883107 1675659069                       
INS041001063765     00000118219600000023735600000140685120000007858891    AD07      BL1            A                                                  
INS051001063765                                                                                        010                                            
INS010011001164233     MARCOS ROGEL                  4051    CROFFORD AVE                                        HAINES CITY          FL338440000     
INS021001164233     CLARA OVIEDO                  4051 CROFFORD AVENUE                                                                                
INS031001164233     HAINES CITY          FL3384400005555555555H5555555555O           0105074              52-0883107 1675973321                       
INS041001164233     00000079865240000013828000000096783120000004743721    AF05      FL1            A                                                  
INS051001164233                                                                                        019                                            
INS010011001173127     JOHN A WESTON JR              625     KINGS WAY                                           MERRITT ISLAND       FL329530000     
INS021001173127                                   5420 QUAIL HOLLOW DRIVE                                                                             
INS031001173127     MERRITT ISLAND       FL3295300003214591039H3218481891O           0107084              52-0883107 1675827474                       
INS041001173127     00000083951620000017129500000098865120000003479812    AF05      FL1            A                                                  
INS051001173127                                                                                        010                                            
INS010011001198819     DONNA M ANDERSON              114-16  145TH ST                                            SOUTH OZONE PARK     NY114360000     
INS021001198819     CYNTHIA SMITH                 436 E 89TH ST APT 3A                                                                                
INS031001198819     NEW YORK             NY1012800001111111111H0000000000O           010108303390956258   52-0883107 1675826910                       
INS041001198819     00000158383420000007806800000165551120000006700108    AF05      FL1            A                                                  
INS051001198819                                                                                        021                                            
INS010011001214913     MICHAEL G STEPP               449     CATHERINE ST                                        COLUMBUS             OH432230000     
INS021001214913                                   12745 LOCKBOURNE EASTERN RD                                                                         
INS031001214913     ASHVILLE             OH4310300007409839150H1111111111O           0111064   .          48-1273715 0000858224                       
INS041001214913     00000042368200000009383300000057730120000003560021    AD07      BL1            A                                                  
INS051001214913                                                                                        010                                            
INS010011001238581     SABRINA D REYNOLDS            48      DANIEL BLVD                                         BLOOMFIELD           CT060020000     
INS021001238581                                   48 DANIEL BOULEVARD                                                                                 
INS031001238581     BLOOMFIELD           CT0600200008608907379H8608885984O           010709303309119926   48-1273715 0000894930                       
INS041001238581     00000126443840000010123200000123407120000003005277    AF05      FL1            A                                                  
INS051001238581                                                                                        010                                            
INS010011001374261     ROBERT MCRAE                  1022    RICHLAND ST                                         HIGH POINT           NC278600000     
INS021001374261                                   1022 RICHLAND STREET                                                                                
INS031001374261     HIGH POINT           NC2726000001111111111H9999999999O           010510300449165170   48-1273715 0000957351                       
INS041001374261     00000048233540000000393200000061764120000000746270    AF05      FL1            A                                                  
INS051001374261                                                                                        010                                            
INS010011001811783     NORMA KAY BARBER-CALLISON     3824    BAYBERRY CT                                         URBANDALE            IA503220000     
INS021001811783                                   3824 BAYBERRY COURT                                                                                 
INS031001811783     URBANDALE            IA5032200005152701165H5152779717O           0103074              52-0883107 1678512875                       
INS041001811783     00000184983080000035807100000172872120000009032951    AE02      AL1            A                                                  
INS051001811783     CHANGED TYPE P: TO AN A NO CONTACT INSPECTION                                      010                                            
INS010011001825817     TONYA MORTEN                  3503  NE11TH TER                                            GAINESVILLE          FL326090000     
INS021001825817     DARRYL MORTEN                 3503 NE 11TH TERRACE                                                                                
INS031001825817     GAINESVILLE          FL3260900003522641284H3523728400O           010108303396240596   48-1273715 0001275387                       
INS041001825817     00000064315860000001159600000128979120000004773154    AF05      FL1            A                                                  
INS051001825817                                                                                        010                                            
INS010011001853363     JOSEPH J ARGYELAN JR          611     MARIN AVE                                           LYNDHURST            NJ070710000     
INS021001853363     PEGGY L ARGYELAN              611 MARIN AVENUE                                                                                    
INS031001853363     LYNDHURST            NJ0707100002019392462H2019885572O           0101094              52-0883107 1678867316                       
INS041001853363     00000223045750000000000000000218368120000006211396    AF05      FL1            A                                                  
INS051001853363                                                                                        012                                            
INS010011001896339     CHERYL H GOOD                 9033    FORINGTON LN                                        GASTONIA             NC280520000     
INS021001896339                                   9033 FORINGTON LANE                                                                                 
INS031001896339     GASTONIA             NC2805200007048657132H0000000000O           010210300494510902   52-0883107 1679394745                       
INS041001896339     00000099411220000005220900000100692120000001587477    AF05      FL1            A                                                  
INS051001896339                                                                                        010                                            
INS010011001915741     REINA BARUCH                     613E NEW YORK AVE          6L                            BROOKLYN             NY112030000     
INS021001915741                                   1227 PRESIDENT ST 4C                                                                                
INS031001915741     BROOKLYN             NY1122500000000000000H3053928421O           0110064              48-1273715 0001285721                       
INS041001915741     00000299641700000020289000000193546120000010691752    AF05      FL1            A                                                  
INS051001915741                                                                                        017                                            
INS010011002071361     VICTORIA L CROISSANT            5300  NORWOOD AVENUE                                      LOVELAND             CO805380000     
INS021002071361                                   PO BOX 143                                                                                          
INS031002071361     LOVELAND             CO8053900005555555555H0000000000O           0111104              52-0883107 1680310328                       
INS041002071361     00000221575910000029391800000175533120000001347116    AD07      BL1            A                                                  
INS051002071361                                                                                        010                                            
INS010011002136859     ANA IRIS BENITEZ              230     VERRAZANO AVE                                       COPIAGUE             NY117260000     
INS021002136859                                   230 VERRAZANO AVE                                                                                   
INS031002136859     COPIAQUE             NY1172600006315929007H6314339958O           0106094              52-0883107 1680621848                       
INS041002136859     00000165497680000006232200000247266120000005749440    AF05      FL1            A                                                  
INS051002136859                                                                                        010                                            
INS010011002161345     PEARLEY JEFFREY JACKSON               RT 1 BX 16 96A                                      WAYNE                WV255700000     
INS021002161345                                   RR 1 BOX 572                                                                                        
INS031002161345     EAST LYNN            WV2551297275555555555H0000000000O           0106074              52-0904874 0604349653                       
INS041002161345     00000070991390000004950000000068046120000003200850LUSIAB01      EL1            A                                                  
INS051002161345     ADDED U TO MAN CODE INCLUSION                                                      010                                            
INS010011002167227     OMAIDA VALENTIN               7895    MARGATE BLVD          204                           MARGATE              FL330630000     
INS021002167227                                   7895 MARGATE BLVD APT 204                                                                           
INS031002167227     MARGATE              FL3306300000000000000H1111111111O           0108084              52-0883107 1680793099                       
INS041002167227     00000060503890000006967800000060388120000002019585    AF05      FL1            A                                                  
INS051002167227                                                                                        016                                            
INS010011002258067     MICHELLE MIESZALA             11      MILLARD AVE                                         MILLER PLACE         NY117640000     
INS021002258067                                   11 MILLARD AVENUE                                                                                   
INS031002258067     MILLER PLACE         NY1176400006314763067H0000000000O           011010300494713609   52-0883107 1681369978                       
INS041002258067     00000230236560000007547500000293719120000002131508    AD07      BL1            A                                                  
INS051002258067                                                                                        010                                            
INS010011002343463     CHERYL A FRENCH               2837  N 39TH ST                                             MILWAUKEE            WI532100000     
INS021002343463                                   2837 N 39TH ST                                                                                      
INS031002343463     MILWAUKEE            WI5321000004144492479H4143551432O           0109104              48-1273715 0001675975                       
INS041002343463     00000051671150000001476300000084242120000000674434    AF05      FL1            A                                                  
INS051002343463                                                                                        010                                            
INS010011002390175     JULIANNE SCARPELLI            1373    LELAND DR                                           YORKTOWN HEIGHTS     NY105980000     
INS021002390175                                   1373 LELAND DRIVE                                                                                   
INS031002390175     YORKTOWN HEIGHTS     NY1059800000000000000H0000000000O           0102094              52-0883107 1694458429                       
INS041002390175     00000150279490000006922400000214835120000005869769    AF05      FL1            A                                                  
INS051002390175                                                                                        010                                            
INS010011002538039     ANGELA SINGH                  38      LISA DR                                             DEER PARK            NY117290000     
INS021002538039                                   38 LISA DRIVE                                                                                       
INS031002538039     DEER PARK            NY1172900006312434464H1111111111O           0107104              52-0883107 1682646696                       
INS041002538039     00000312115200000002457900000264163120000002666209    AE02      AL1            A                                                  
INS051002538039     CHANGED TYPE P: TO AN A NO CONTACT INSPECTION                                      010                                            
INS010011002633665     BULENT BEDIZ                  1015    UNION ST                                            GREENSBORO           NC274030000     
INS021002633665                                   808 LEXINGTON AVE                                                                                   
INS031002633665     GREENSBORO           NC2740300003363799349H1111111111O           0102094              52-0883107 1683233425                       
INS041002633665     00000026645880000003903200000061106120000001517453    AE02      AL1            A                                                  
INS051002633665     CHANGED TYPE P: TO AN A NO CONTACT INSPECTION                                      010                                            
INS010011002646311     DAVID F HAVENS                7560    BROOKFIELD FOREST CT                                LEWISVILLE           NC270230000     
INS021002646311                                   7560 BROOKFIELD FOREST COURT                                                                        
INS031002646311     LEWISVILLE           NC2702300003366926580H1111111111O           0112094              48-1273715 0001886197                       
INS041002646311     00000366189370000026754000000431488120000007408322    AF05      FL1            A                                                  
INS051002646311                                                                                        010                                            
INS010011002738175     MARGARET A THOMPSON           76      PATRICK DR                                          LAGRANGEVILLE        NY125400000     
INS021002738175     JOSEPH THOMPSON               76 PATRICK DRIVE                                                                                    
INS031002738175     LAGRANGEVILLE        NY1254000008452279406H9149952975O           0109084              94-6000630 451909                           
INS041002738175     00000120635850000006111600000191636120000006193468    AF05      FL1            A                                                  
INS051002738175                                                                                        010                                            
INS010011002785267     THERESA N BERNABE             4704  E CENTRALIA ST                                        LONG BEACH           CA908080000     
INS021002785267                                   4450 GRAYWOOD ST                                                                                    
INS031002785267     LONG BEACH           CA9080800001111111111H0000000000O           010904400484067695   48-1273715 0002033213                       
INS041002785267     00000002070220000083298600000216355120000018154148    AD06      BL1            A                                                  
INS051002785267                                                                                        010                                            
INS010011002826699     DAVID J ARISTIDE              30      WALNUT ST                                           QUINCY               MA021710000     
INS021002826699                                   P O BOX 51097                                                                                       
INS031002826699     BOSTON               MA0220510971111111111H6173762100O           0112054              48-1273715 0002006785                       
INS041002826699     00000317327740000006692000000276252120000019291380    AF05      FL1            A                                                  
INS051002826699                                                                                        012                                            
INS010011002853081     CHARLES P MURCHA III          14      MALLARD AVE                                         SELDEN               NY117840000     
INS021002853081                                   14 MALLARD AVENUE                                                                                   
INS031002853081     SELDEN               NY1178400001111111111H0000000000O           0112084              52-0883107 1685091553                       
INS041002853081     00000149582580000007605800000164925120000004858883    AE02      AL1            A                                                  
INS051002853081     CHANGED TYPE P: TO AN A NO CONTACT INSPECTION                                      010                                            
INS010011002998571     JAN CHOTALAL                  1243    OBER HILL RD                                        JOHNSON              VT056560000     
INS021002998571                                   1243 OBER HILL ROAD                                                                                 
INS031002998571     JOHNSON              VT0565600000000000000H8022441150O           0112104              52-0883107 1686292667                       
INS041002998571     00000090492060000001155100000084950120000000423818    AF05      FL1            A                                                  
INS051002998571                                                                                        010                                            
INS010011003058979     BARBARA A WHYARD                  44  LEEWARD DR                                          BLOOMINGBURG         NY127210000     
INS021003058979                                   44 LEEWARD DRIVE                                                                                    
INS031003058979     BLOOMINGBURG         NY1272100008457336644H1111111111O           0106104              52-0883107 1686422243                       
INS041003058979     00000152841420000002188000000231914120000002572934    AF05      FL1            A                                                  
INS051003058979                                                                                        010                                            
INS010011003137807     RICHARD MONGELLI                  26  CHAUNCEY PLACE                                      WOODBURY             NY117970000     
INS021003137807                                   10 AERIAL WAY                                                                                       
INS031003137807     SYOSSET              NY1179100005165462752H5166770063O           0112104              48-1273715 0001961537                       
INS041003137807     00000366637470000013096000000517193120000002716925    AF05      FL1            A                                                  
INS051003137807                                                                                        010                                            
INS010011003198411     MICHAEL ARCABASCIO             14-75  157TH ST                                            WHITESTONE           NY113570000     
INS021003198411                                   14-75 157TH STREET                                                                                  
INS031003198411     WHITESTONE           NY1135700001111111111H0000000000O           0101094              52-0883107 1687769663                       
INS041003198411     00000253352080000007218200000212836120000005307337    AF05      FL1            A                                                  
INS051003198411                                                                                        010                                            
INS010011003228853     PABLO RAMIREZ                 45      SCOTT ST                                            DIX HILLS            NY117460000     
INS021003228853     ROSA RAMIREZ                  45 SCOTT STREET                                                                                     
INS031003228853     HUNTINGTON STATION   NY1174600006312548868H9999999999O           0104094              94-6000630 663952                           
INS041003228853     00000184073040000009145400000276129120000006994679    AF05      FL1            A                                                  
INS051003228853                                                                                        010                                            
INS010011003269535     DONALD M ROBERTS              42      VENTURA DR                                          DUNEDIN              FL346980000     
INS021003269535                                   1007 PINEBROOK DRIVE                                                                                
INS031003269535     CLEARWATER           FL3375500000000000000H0000000000O           010909300485847040   52-0883107 1687918542                       
INS041003269535     00000085189150000005279400000096998120000002014612    AD07      BL1            A                                                  
INS051003269535                                                                                        010                                            
INS010011003368543     LEIGH HULL WENDY FERRELL      13      OLD BURLINGTON HWY                                  MILAN                TN383580000     
INS021003368543                                   13 OLD BURLINGTON HIGHWAY                                                                           
INS031003368543     MILAN                TN3835800007316861483H0000000000O           0110084              52-0883107 1689009930                       
INS041003368543     00000102123850000011177800000084519120000002731867    AF05      FL1            A                                                  
INS051003368543                                                                                        010                                            
INS010011003418603     PAUL QUINTO                   7       TUXEDO DR                                           MELVILLE             NY117470000     
INS021003418603                                   7 TUXEDO DRIVE                                                                                      
INS031003418603     MELVILLE             NY1174700006313672650H0000000000O           0109104              48-1273715 0002545864                       
INS041003418603     00000450732190000000000000000354586120000002825908LUSIAB01      EL1            A                                                  
INS051003418603     ADDED U TO MAN CODE INCLUSION                                                      010                                            
INS010011003430897     PATRICIA ANN NIEVES           2858    RANDALL AVE                                         BRONX                NY104650000     
INS021003430897                                   2858 RANDALL AVENUE                                                                                 
INS031003430897     BRONX                NY1046500007185976753H0000000000O           0103094              52-0904874 962198471                        
INS041003430897     00000211878950000009303000000187786120000004975466    AF05      FL1            A                                                  
INS051003430897                                                                                        012                                            
INS010011003509435     FRANCISCO MORENO              7401  W 16TH AVE                                            HIALEAH              FL330140000     
INS021003509435                                   7401 WEST 16TH AVE                                                                                  
INS031003509435     HIALEAH              FL3301400001111111111H0000000000O           0102094              52-0883107 1689814596                       
INS041003509435     00000091066880000007886700000086277120000002679084    AE02      AL1            A                                                  
INS051003509435     CHANGED TYPE P: TO AN A NO CONTACT INSPECTION                                      010                                            
INS010011003566203     HARRY BOWMAN WAGERS           310     ZION RD                                             DORCHESTER           SC294370000     
INS021003566203                                   310 ZION ROAD                                                                                       
INS031003566203     DORCHESTER           SC2943700008432003558H8438730112O           0106104              52-0883107 1692486662                       
INS041003566203     00000156033520000003257400000130612120000001483396    AF05      FL1            A                                                  
INS051003566203                                                                                        010                                            
INS010011003643325     OLGA MIRANDA                  15    S HUNTER AVE                                          JOLIET               IL604360000     
INS021003643325                                   600 N HICKORY                                                                                       
INS031003643325     JOLIET               IL6043500008157274591H8157274591O           010209303396370438   52-0883107 1692761227                       
INS041003643325     00000080981180000013020800000141356120000003975276    AF05      FL1            A                                                  
INS051003643325                                                                                        012                                            
INS010011003657721     CHANTHAL LASSO STEWART        436     STINSON AVE                                         VACAVILLE            CA956880000     
INS021003657721                                   436 STINSON AVE                                                                                     
INS031003657721     VACAVILLE            CA9568824355107745198H9999999999O           010109303396371679   48-1273715 0002859831                       
INS041003657721     00000171012440000011299900000131753120000003521227    AF05      FL1            A                                                  
INS051003657721                                                                                        021                                            
INS010011003660485     JOHN C BOWERS                 16125   GALENA RD                                           PLANO                IL605450000     
INS021003660485     CHRISTINA R BOWERS            16125 GALENA ROAD                                                                                   
INS031003660485     PLANO                IL6054500006305523534H6307777844O           0107094              52-0883107 1693153777                       
INS041003660485     00000175571820000008520000000165733120000003653534    AE02      AL1            A                                                  
INS051003660485     CHANGED TYPE P: TO AN A NO CONTACT INSPECTION                                      010                                            
INS010011003667381     ROBERT SUTHERLAND             17    E BROOKLINE DR                                        LAUREL SPRINGS       NJ080210000     
INS021003667381                                   17 E BROOKLINE DRIVE                                                                                
INS031003667381     LAUREL SPRINGS       NJ0802100008562272549H0000000000O           0102094              48-1273715 0002919968                       
INS041003667381     00000233122390000026466700000237624120000006457078    AF05      FL1            A                                                  
INS051003667381                                                                                        010                                            
INS010011003914981     RICHARD T HEALY               64      PLEASANT ST                                         PERU                 NY129720000     
INS021003914981                                   64 PLEASANT ST                                                                                      
INS031003914981     PERU                 NY1297200005186439415H1111111111O           0101114              52-0883107 1694249333                       
INS041003914981     00000108604020000000000000000128067120000000512268    AF05      FL1            A                                                  
INS051003914981                                                                                        010                                            
INS010011004072623     MAUREEN J FLANAGAN            5429  N MILWAUKEE AVE         2B                            CHICAGO              IL606300000     
INS021004072623                                   5743 N MULLIGAN                                                                                     
INS031004072623     CHICAGO              IL6064600007737639253H7737752110O           0110054              48-1273715 0003323697                       
INS041004072623     00000147592310000023071200000070070120000006184850    AE02      AL1            A                                                  
INS051004072623     CHANGED TYPE P: TO AN A NO CONTACT INSPECTION                                      016                                            
INS010011004082473     LORI L CRAMER                 115     LEONARD RD   NW                                     BALTIMORE            OH431050000     
INS021004082473     ANTHONY C CRAMER              115 LEONARD ROAD NORTHWEST                                                                          
INS031004082473     BALTIMORE            OH4310500001111111111H0000000000O           0111084              52-0883107 1694953958                       
INS041004082473     00000098711170000013981600000135863120000004224008    AF05      FL1            A                                                  
INS051004082473                                                                                        010                                            
INS010011004124275     CHRISTINE CECERE              420   E 4TH AVE                                             ROSELLE              NJ072030000     
INS021004124275                                   420 E 4TH AVE                                                                                       
INS031004124275     ROSELLE              NJ0720300009082415809H0000000000O           0107104              52-0883107 1695065921                       
INS041004124275     00000111775580000003539700000191002120000001780449    AF05      FL1            A                                                  
INS051004124275                                                                                        010                                            
INS010011004174767     DANIEL P MIDDLETON            4105    ELLIOT   S                                          MINNEAPOLIS          MN554070000     
INS021004174767     IZUMI H MIDDLETON             4105 ELLIOT SOUTH                                                                                   
INS031004174767     MINNEAPOLIS          MN5540700006128220292H9999999999O           0103094              52-0883107 1695274076                       
INS041004174767     00000120094910000002645300000075573120000002766573    AE02      AL1            A                                                  
INS051004174767     CHANGED TYPE P: TO AN A NO CONTACT INSPECTION                                      010                                            
INS010011004212047     JOSEPH SABELLA                   303  MORSE PLAZA                                         FT MYERS             FL339050000     
INS021004212047                                   1059 WARWICK AVE                                                                                    
INS031004212047     THOUSAND OAKS        CA9136000008053739064H8053739004O           0112074              48-1273715 3573260                          
INS041004212047     00000178000000000017170900000133208120000005942815    AE02      AL1            A                                                  
INS051004212047     CHANGED TYPE P: TO AN A NO CONTACT INSPECTION                                      010                                            
INS010011004228415     RICHARD A PITMAN JR           4589    OLD GUERNSEY RD                                     PACE                 FL325710000     
INS021004228415                                   4589 OLD GUERNSEY RD                                                                                
INS031004228415     PACE                 FL3257100001111111111H2708665107O           0108064              48-1273715 3429537                          
INS041004228415     00000132360390000031339600000157722120000008450722    AF05      FL1            A                                                  
INS051004228415                                                                                        010                                            
INS010011004250971     HANNY SUNARTO                 1053  W 104TH PL                                            CHICAGO              IL606430000     
INS021004250971                                   129 N MANCHESTER LN                                                                                 
INS031004250971     BLOOMINGDALE         IL6010800001111111111H8478413036O           011209300429771685   52-0904874 962238538                        
INS041004250971     00000076944860000004344000000080945120000001453925    AF05      FL1            A                                                  
INS051004250971                                                                                        010                                            
INS010011004303697     NINA ITALIA                   14281   ORANGE BLVD                                         LOXAHATCHEE          FL334700000     
INS021004303697                                   14281 ORANGE BLVD                                                                                   
INS031004303697     LOXAHATCHEE          FL3347000005617920900H0000000000O           0112094              52-0904874 357450663                        
INS041004303697     00000139191420000009372000000137749120000002526773    AF05      FL1            A                                                  
INS051004303697                                                                                        010                                            
INS010011004382501     JAMES GRANNO                  7984    VINTAGE WAY                                         FAIR OAKS            CA956280000     
INS021004382501     JUDITH GRANNO                 7984 VINTAGE WAY                                                                                    
INS031004382501     FAIR OAKS            CA9562800009169672788H9168698663O           0108104              52-0883107 1705617692                       
INS041004382501     00000333692430000002661200000162048120000001485044    AE02      AL1            A                                                  
INS051004382501     CHANGED TYPE P: TO AN A NO CONTACT INSPECTION                                      010                                            
INS010011004397715     MINA YEON                     12700   JOSEPHINE ST          121                           GARDEN GROVE         CA928430000     
INS021004397715                                   9741 STANFORD AVE                                                                                   
INS031004397715     GARDEN GROVE         CA9284100001111111111H1111111111O           0107094              48-1273715 0003844722                       
INS041004397715     00000294019780000000000000000187953120000004069482    AD06      BL1            A                                                  
INS051004397715                                                                                        016                                            
INS010011004474951     ROQUE C MANIBUSAN             16651   LANDAU LN                                           HUNTINGTON BEACH     CA926470000     
INS021004474951                                   16651 LANDAU LN                                                                                     
INS031004474951     HUNTINGTON BEACH     CA9264700009999999999H7142258247O           0102114              48-1273715 0003919935                       
INS041004474951     00000381876060000002887300000235627120000000735754    AD07      BL1            A                                                  
INS051004474951                                                                                        010                                            
INS010011004541825     RYAN STARKS                   6449  N BROAD ST                                            PHILADELPHIA         PA191260000     
INS021004541825                                   PO BOX 20965                                                                                        
INS031004541825     PHILADELPHIA         PA1914100002159243491H0000000000O           0109104              48-1273715 0003929859                       
INS041004541825     00000100953660000009291700000101894120000000908069    AF05      FL1            A                                                  
INS051004541825                                                                                        010                                            
INS010011004550131     JERRY MIRE                    16786   81ST LN   N                                         LOXAHATCHEE          FL334700000     
INS021004550131                                   16768 81ST LANE NORTH                                                                               
INS031004550131     LOXAHATCHEE          FL3347000005617906853H0000000000O           0109084              48-1273715 0003965925                       
INS041004550131     00000295218900000002274000000211090120000008686120LUSIAB01      EL1            A                                                  
INS051004550131     ADDED U TO MAN CODE INCLUSION                                                      010                                            
INS010011004561047     MARIAM ZAFLLOW                608   E ANGELENO AVE                                        BURBANK              CA915010000     
INS021004561047                                   608 EAST ANGELENO AVENUE                                                                            
INS031004561047     BURBANK              CA9150100008019069048H0000000000O           010806400321540776   48-1273715 0120074257                       
INS041004561047     00000000279340000046494000000172203120000010280511    AD07      BL1            A                                                  
INS051004561047                                                                                        010                                            
INS010011004649651     ERNEST T VARVARIKOS             5582N OCEAN BLVD 32F                                      OCEAN RIDGE          FL334350000     
INS021004649651                                   5582A N OCEAN BLVD 32F                                                                              
INS031004649651     OCEAN RIDGE          FL3343500005617333343H5617048136O           0105084              48-1273715 0120044144                       
INS041004649651     00000596821760000039400100000491732120000015004836    AF05      FL1            A                                                  
INS051004649651                                                                                        016                                            
INS010011004734115     SPILLMAN K TRUHART              3817  17TH PLACE NE                                       WASHINGTON           DC200180000     
INS021004734115     DEBRA L TRUHART               3817 17TH PLACE NE                                                                                  
INS031004734115     WASHINGTON           DC2001800002028322283H7037504452O           0111094              48-1273715 0120217084                       
INS041004734115     00000239478790000012224700000173382120000003279135    AF05      FL1            A                                                  
INS051004734115                                                                                        010                                            
INS010011004758007     CHRISTOPHER DEBLAU                48  CLIFF ROAD                                          WEST MILFORD         NJ074800000     
INS021004758007                                   48 CLIFF RD                                                                                         
INS031004758007     WEST MILFORD         NJ0748000001111111111H1111111111O           010109300431248124   00-0000000 120291679                        
INS041004758007     00000299840560000013553900000192410120000005656831    AE02      AL1            A                                                  
INS051004758007     CHANGED TYPE P: TO AN A NO CONTACT INSPECTION                                      010                                            
INS010011004764781     JUDE CHARLES                    7824  WEST INDIGO STREET                                  MIRAMAR              FL330230000     
INS021004764781                                   7824  WEST INDIGO STREET                                                                            
INS031004764781     MIRAMAR              FL3302300005555555555H5555555555O           0112084              48-1273715 0120329320                       
INS041004764781     00000167215820000010225400000101524120000003346165    AF05      FL1            A                                                  
INS051004764781                                                                                        010                                            
INS010011004800627     PEDRO RAMIREZ                  12782  59TH STREET                                         WEST PALM BEACH      FL334110000     
INS021004800627                                   12782 59TH  STREET                                                                                  
INS031004800627     WEST PALM BEACH      FL3341100000000000000H5616025200O           0109084              52-0883107 1706995207                       
INS041004800627     00000296795660000029142000000248505120000008243580    AF05      FL1            A                                                  
INS051004800627                                                                                        010                                            
INS010011004811939     HERBERT S MELO                    66  HAWTHORNE AVENUE                                    CLIFTON              NJ070110000     
INS021004811939                                   66 HAWTHORNE AVENUE                                                                                 
INS031004811939     CLIFTON              NJ0701100009733898025H9738941200O           010608303396396606   52-0883107 1697282418                       
INS041004811939     00000281516560000032330600000283362120000010264412    AF05      FL1            A                                                  
INS051004811939                                                                                        010                                            
INS010011004820021     EDGAR VEGA                      5242  OSMAN CT APT 60                                     LAS VEGAS            NV891030000     
INS021004820021                                   5242 OSMAN CT APT 60                                                                                
INS031004820021     LAS VEGAS            NV8910300001111111111H1111111111O           0107094              48-1273715 0120334073                       
INS041004820021     00000078523440000002574000000066125120000001166680    AF05      FL1            A                                                  
INS051004820021                                                                                        016                                            
INS010011004830749     CHARLEEN KING                   1642  PINE CIRCLE                                         AUSTELL              GA301680000     
INS021004830749                                   1642 PINE CIRCLE                                                                                    
INS031004830749     AUSTELL              GA3016800007707714172H7707714172O           0108094              48-1273715 0120416534                       
INS041004830749     00000100514020000004429800000054555120000001189953    AF05      FL1            A                                                  
INS051004830749                                                                                        010                                            
INS010011004896773     BRUCE A JOHNSTON JR               43  IVY LEAGUE LANE                                     STONY BROOK          NY117900000     
INS021004896773                                   43 IVY LEAGUE LANE                                                                                  
INS031004896773     STONY BROOK          NY1179000006316756339H5163750585O           0112094              48-1273715 0120516730                       
INS041004896773     00000346969650000009059600000282921120000004900253    AF05      FL1            A                                                  
INS051004896773                                                                                        010                                            
INS010011004901821     BOBBY JULIAN                  1345  SW61ST TERR                                           OKLAHOMA CITY        OK731590000     
INS021004901821                                   1345 SW 61ST TERR                                                                                   
INS031004901821     OKLAHOMA CITY        OK7315900004053139329H1111111111O           0103094              48-1273715 0120292770                       
INS041004901821     00000091424290000000016100000070176120000000583113    AF05      FL1            A                                                  
INS051004901821                                                                                        010                                            
INS010011004904999     TERRY M CARTER                  1768  SAWGRASS CIRCLE                                     GREEN ACRES          FL334130000     
INS021004904999                                   1768 SAWGRASS CIRCLE                                                                                
INS031004904999     GREEN ACRES          FL3341300001111111111H0000000000O           0106084              48-1273715 0120548135                       
INS041004904999     00000234242450000024293000000161972120000008335798    AF05      FL1            A                                                  
INS051004904999                                                                                        010                                            
INS010011004911317     VANESSA MOORE                 41      HILL ST                                             BOGOTA               NJ076030000     
INS021004911317                                   PO BOX 375                                                                                          
INS031004911317     BERGENFIELD          NJ0762100002014888068H0000000000O           0106074              48-1273715 0120542909                       
INS041004911317     00000306303810000062974700000355507120000015544618    AF05      FL1            A                                                  
INS051004911317                                                                                        012                                            
INS010011004957609     ROBERT GLASS                      33  MOUNTAIN VIEW COURT                                 SANTA CRUZ           CA950620000     
INS021004957609     JUDY GLASS                    33 MOUNTAIN VIEW COURT                                                                              
INS031004957609     SANTA CRUZ           CA9506200009999999999H9999999999O           0105104              48-1273715 0120515080                       
INS041004957609     00000480652860000038438800000315096120000003947839LUSIAB01      EL1            A                                                  
INS051004957609     ADDED U TO MAN CODE INCLUSION                                                      010                                            
INS010011004958797     TIA HALL                        3223  CLIFTMONT AVE                                       BALTIMORE            MD212130000     
INS021004958797                                   3223 CLIFTMONT AVE                                                                                  
INS031004958797     BALTIMORE            MD2121300004105631710H0000000000O           0107094              48-1273715 0120563472                       
INS041004958797     00000072810590000007913800000069000120000001524601    AF05      FL1            A                                                  
INS051004958797                                                                                        021                                            
INS010011004985303     THOMAS O RASKOWSKY            259     GOLDEN HIND PASSAGE                                 CORTE MADERA         CA949250000     
INS021004985303     KATHLEEN K RASKOWSKY          311 LAUREL AVE                                                                                      
INS031004985303     SAN ANSELMO          CA9496015024152799813H4155189852O           0112084              48-1273715 0120619001                       
INS041004985303     00000775200000000054940500000494400120000014693993    AF05      FL1            A                                                  
INS051004985303                                                                                        010                                            
INS010011005021561     DONNIE L ASHPOLE                 135  LEE STREET                                          BRIGHTON             TN380110000     
INS021005021561     ARDELLA ASHPOLE               628 FYFE STREET                                                                                     
INS031005021561     COVINGTON            TN3801900009013139109H0000000000O           0108094              48-1273715 0120330602                       
INS041005021561     00000095433180000000568800000124401120000002265603LUSIAB01      EL1            A                                                  
INS051005021561     ADDED U TO MAN CODE INCLUSION                                                      010                                            
INS010011005048135     VIVIAN DEVAUL                    306  DELANO AVENUE                                       CANASTOTA            NY130320000     
INS021005048135                                   400 LAMB AVE                                                                                        
INS031005048135     CANASTOTA            NY1303210603156973795H3156973795O           011009300321987544   52-0883107 1697732138                       
INS041005048135     00000078618950000003388300000095286120000001844317    AF05      FL1            A                                                  
INS051005048135                                                                                        010                                            
INS010011005058191     CHESTER L PITTMAN               1780  WINDING RIDGE CIRCLE                                PALM BAY             FL329090000     
INS021005058191     SYRIAN PITTMAN                1780 WINDING RIDGE CIRCLE SE                                                                        
INS031005058191     PALM BAY             FL3290800003219539814H1111111111O           0103084              48-1273715 0120665762                       
INS041005058191     00000355246870000041638900000304717120000010445393    AF05      FL1            A                                                  
INS051005058191                                                                                        010                                            
INS010011005096373     MICHELLE MORRIS                 6542  BISHOP DRIVE                                        HUNTINGTON BEACH     CA926470000     
INS021005096373     ROLANDO COMAGON               PO BOX 1473                                                                                         
INS031005096373     HUNTINGTON BEACH     CA9264700001111111111H0000000000O           0101084              48-1273715 0120686782                       
INS041005096373     00000513015610000073442800000417743120000016719348    AE02      AL1            A                                                  
INS051005096373     CHANGED TYPE P: TO AN A NO CONTACT INSPECTION                                      010                                            
INS010011005141617     CHASKEL SAFERN                116     CHATEAU DR                                          LAKEWOOD             NJ087010000     
INS021005141617                                   116 CHATEAU DR                                                                                      
INS031005141617     LAKEWOOD             NJ0870100007329420387H0000000000O           0109094              52-0883107 1697901925                       
INS041005141617     00000131140640000013179000000158330120000003285378    AF05      FL1            A                                                  
INS051005141617                                                                                        021                                            
INS010011005143647     FLUTURA MALOKU                    25  WEST MOYLAN LANE                                    CORAM                NY117270000     
INS021005143647                                   25 WEST MOYLAN LANE                                                                                 
INS031005143647     CORAM                NY1172700006314733469H6317450709O           0102094              52-0883107 1698260363                       
INS041005143647     00000333514920000008782500000263063120000007190526    AF05      FL1            A                                                  
INS051005143647                                                                                        010                                            
INS010011005214299     HOWARD D ROTHSTEIN             13241  NIGHT OWL LANE                                      PALM BEACH GARDENS   FL334180000     
INS021005214299                                   13241 NIGHT OWL LN                                                                                  
INS031005214299     WEST PALM BEACH      FL3341800001111111111H0000000000O           0104074              48-1273715 0120820380                       
INS041005214299     00000564627570000056420900000200714120000020116595    AF05      FL1            A                                                  
INS051005214299                                                                                        010                                            
INS010011005217847     ANN L PALUMBO                     52  HARRIGAN ROAD                                       HOPEWELL JUNCTION    NY125330000     
INS021005217847                                   52 HARRIGAN ROAD                                                                                    
INS031005217847     HOPEWELL JUNCTION    NY1253300005555555555H5555555555O           0111084              48-1273715 0120757136                       
INS041005217847     00000329208270000007318500000275691120000008321715LUSIAB01      EL1            A                                                  
INS051005217847     ADDED U TO MAN CODE INCLUSION                                                      010                                            
INS010011005228869     CHRISTY M INDAHL                4132  NORTHEAST 5TH DRIVE                                 GRESHAM              OR970300000     
INS021005228869                                   11900 NE 18TH ST APT 567                                                                            
INS031005228869     VANCOUVER            WA9868451113605973736H3605973736O           0112094   .          48-1273715 0120870393                       
INS041005228869     00000237129140000004863600000208103120000002814767    AD06      BL1            A                                                  
INS051005228869                                                                                        010                                            
INS010011005251101     AURORA G MARTINEZ             33372   13TH ST                                             UNION CITY           CA945870000     
INS021005251101                                   33372 13TH STREET                                                                                   
INS031005251101     UNION CITY           CA9458700005107507160H5104712377O           0109104              48-1273715 0120847316                       
INS041005251101     00000332622100000008089300000246771120000002055061    AF05      FL1            A                                                  
INS051005251101                                                                                        010                                            
INS010011005260425     PATRICK CHINSHUE              5085    FOREST DALE DR                                      LAKE WORTH           FL334670000     
INS021005260425                                   5085 FOREST DALE DRIVE                                                                              
INS031005260425     LAKE WORTH           FL3344900005614398097H1111111111O           0109084              48-1273715 0120646174                       
INS041005260425     00000454101450000027337600000167895120000010831897    AF05      FL1            A                                                  
INS051005260425                                                                                        010                                            
INS010011005260755     TROY D WALKER                   5995W HAMPDEN AVE BLDG G    19                            DENVER               CO802270000     
INS021005260755                                   558 E CASRLE PINES PKWY                                                                             
INS031005260755     CASTLE ROCK          CO8010800003036631432H7196351558O           0107084              00-0000000 120722611                        
INS041005260755     00000054493410000003663600000046564120000001393114    AF05      FL1            A                                                  
INS051005260755                                                                                        016                                            
INS010011005275415     JERRY ZLOTOFF                 87      HUNTER AVE                                          MILLER PLACE         NY117640000     
INS021005275415     RHONDA ZLOTOFF                87 HUNTER AVENUE                                                                                    
INS031005275415     MILLER PLACE         NY1176400005166359846H1111111111O           0101074              48-1273715 0120719801                       
INS041005275415     00000445000000000034329600000325019120000021659569    AE02      AL1            A                                                  
INS051005275415     CHANGED TYPE P: TO AN A NO CONTACT INSPECTION                                      010                                            
INS010011005278757     EFREN R RUGNAO                3424    STANFIELD DR                                        STOCKTON             CA952090000     
INS021005278757                                   3424 STANFIELD DR                                                                                   
INS031005278757     STOCKTON             CA9520900001111111111H1111111111O           0104084              48-1273715 0120938197                       
INS041005278757     00000314561920000014394500000196282120000008541401    AD06      BL1            A                                                  
INS051005278757                                                                                        010                                            
INS010011005286255     STEVEN J FREESTONE JR             28  WOODCLIFF AVENUE                                    MONTICELLO           NY127010000     
INS021005286255     MELISSA A FREESTONE           28 WOODCLIFF AVENUE                                                                                 
INS031005286255     MONTICELLO           NY1270100001111111111H1111111111O           0104074              48-1273715 0120916063                       
INS041005286255     00000117487310000005751400000182497120000007960090    AF05      FL1            A                                                  
INS051005286255                                                                                        010                                            
INS010011005297369     RONALD HIMMEL                 15      DONNA PL                                            MATAWAN              NJ077470000     
INS021005297369                                   15 DONNA PLACE                                                                                      
INS031005297369     ABERDEEN             NJ0774700007325833043H7322649511O           0111094              48-1273715 0120926688                       
INS041005297369     00000191679930000019746600000198040120000003706065    AE02      AL1            A                                                  
INS051005297369     CHANGED TYPE P: TO AN A NO CONTACT INSPECTION                                      010                                            
INS010011005302987     PAULETTE POLLY                635     63RD AVE                                            VERO BEACH           FL329680000     
INS021005302987                                   1144 PO BOX                                                                                         
INS031005302987     ARKADELPHIA          AR7192300000000000000H8702105067O           0109084              48-1273715 0120924700                       
INS041005302987     00000080515860000003488100000033682120000003278550    AD07      BL1            A                                                  
INS051005302987                                                                                        010                                            
INS010011005313265     JUANA A PACHECO                 7206  THOMAS DRIVE                                        UPPER MARLBORO       MD207720000     
INS021005313265                                   7206 THOMAS DRIVE                                                                                   
INS031005313265     UPPER MARLBORO       MD2077200003015990352H2026931164O           0109084              52-0883107 1698113131                       
INS041005313265     00000281414750000030876000000258596120000008626337    AF05      FL1            A                                                  
INS051005313265                                                                                        010                                            
INS010011005363591     RENEE CORKRUM                 27      CAMPBELL DR                                         MASTIC               NY119500000     
INS021005363591                                   27 CAMPBELL DR                                                                                      
INS031005363591     MASTIC               NY1195000000000000000H0000000000O           0108084              48-1273715 0120946867                       
INS041005363591     00000303482060000010345100000183054120000007920023    AF05      FL1            A                                                  
INS051005363591                                                                                        010                                            
INS010011005386899     NURY ESCOBAR                  8776  SW12 ST                 106                           MIAMI                FL331740000     
INS021005386899                                   8776 SW 12 STREET UNIT 106                                                                          
INS031005386899     MIAMI                FL3317400001111111111H1111111111O           010908300322321505   48-1273715 0120981231                       
INS041005386899     00000159741540000012145000000085981120000003125340    AF05      FL1            A                                                  
INS051005386899                                                                                        016                                            
INS010011005406069     GREGORY BUCHAN                840   SE3RD TER                                             POMPANO BEACH        FL330600000     
INS021005406069                                   840 SE 3RD TER                                                                                      
INS031005406069     POMPANO BEACH        FL3306000001111111111H0000000000O           0110084              48-1273715 0121111840                       
INS041005406069     00000500144420000043167000000347158120000011432011    AF05      FL1            A                                                  
INS051005406069                                                                                        010                                            
INS010011005422587     TULLIO MARANO                    105NE7TH TER                                             CAPE CORAL           FL339090000     
INS021005422587                                   105 NE 7TH TERR                                                                                     
INS031005422587     CAPE CORAL           FL3390900002395747903H2392429255O           0102094              48-1273715 0121079661                       
INS041005422587     00000153214770000009409700000125649120000003504490    AD07      BL1            A                                                  
INS051005422587                                                                                        010                                            
INS010011005430739     KORHAN DUNDAR                   2253  CROSSHAIR CIRCLE                                    ORLANDO              FL328370000     
INS021005430739                                   2253 CROSSHAIR CR                                                                                   
INS031005430739     ORLANDO              FL3283700001111111111H5325609579O           0103074              48-1273715 0121091945                       
INS041005430739     00000195195350000032946000000186643120000009695756    AF05      FL1            A                                                  
INS051005430739                                                                                        010                                            
INS010011005460363     FIROUZEH FOROUZMAND              565  PLAYA LINDA PLACE                                   LAS VEGAS            NV891380000     
INS021005460363                                   565 PLAYA LINDA PLACE                                                                               
INS031005460363     LAS VEGAS            NV8913800007025073943H7023600891O           0112094              48-1273715 0121102881                       
INS041005460363     00000420600820000021823800000192779120000003954865    AF05      FL1            A                                                  
INS051005460363                                                                                        010                                            
INS010011005469521     WILFREDO LAZO                 471     HEMPSTEAD GARDEN DR                                 WEST HEMPSTEAD       NY115520000     
INS021005469521     NELLY LAZO                    471 HEMPSTEAD GARDEN DRIVE                                                                          
INS031005469521     WEST HEMPSTEAD       NY1155200005166405603H1111111111O           0111094              48-1273715 0121084868                       
INS041005469521     00000396366200000008506800000327337120000005977134    AF05      FL1            A                                                  
INS051005469521                                                                                        012                                            
INS010011005492903     SYLVESTER THOMAS                 502SWINDIAN KEY DRIVE                                    PORT SAINT LUCIE     FL349860000     
INS021005492903     MONICA THOMAS                 502 SW INDIAN KEY DR                                                                                
INS031005492903     PORT SAINT LUCIE     FL3498600007728799729H9999999999O           0103104              48-1273715 0120997621                       
INS041005492903     00000145169010000006975100000125772120000001820239    AF05      FL1            A                                                  
INS051005492903                                                                                        010                                            
INS010011005513039     CHERYL GOLDINGER              39      CRESTWOOD DR                                        MAPLEWOOD            NJ070400000     
INS021005513039                                   39 CRESTWOOD DRIVE                                                                                  
INS031005513039     MAPLEWOOD            NJ0704000009737611722H1111111111O           0104084              48-1273715 0121152630                       
INS041005513039     00000438582980000047329900000444806120000015065004    AF05      FL1            A                                                  
INS051005513039                                                                                        010                                            
INS010011005521313     LUKE A MILLER                     22  FINISH LINE RD                                      BAHAMA               NC275030000     
INS021005521313                                   22 FINISH LINE ROAD                                                                                 
INS031005521313     BAHAMA               NC2750300009196207367H9194834250O           010211300430946138   48-1273715 0121125746                       
INS041005521313     00000333784590000002021700000296578120000000909951LUSIAB01      EL1            A                                                  
INS051005521313     ADDED U TO MAN CODE INCLUSION                                                      010                                            
INS010011005588239     KARINDA ELLIOTT               170     NATOLINO CIR                                        SACRAMENTO           CA958350000     
INS021005588239                                   2820 PARKVIEW TERRACE                                                                               
INS031005588239     FAIRFIELD            CA9453400001111111111H1111111111O           0111084              48-1273715 0121293189                       
INS041005588239     00000311870000000015685100000194818120000005891415LUSIAB01      EL1            A                                                  
INS051005588239     ADDED U TO MAN CODE INCLUSION                                                      010                                            
INS010011005588833     ADOYLA SOFIA SAGASTEGUI       15462 SW18TH ST                                             MIAMI                FL331850000     
INS021005588833                                   15462 SW 18TH ST                                                                                    
INS031005588833     MIAMI                FL3318500003052200743H1111111111O           0111084              48-1273715 0121323238                       
INS041005588833     00000297399580000036967800000193734120000010950966    AF05      FL1            A                                                  
INS051005588833                                                                                        010                                            
INS010011005603889     PETER J BYRON                     36  PARKVIEW AVENUE                                     MERIDEN              CT064510000     
INS021005603889     CAROLYN J BYRON               36 PARKVIEW AVENUE                                                                                  
INS031005603889     MERIDEN              CT0645100002032370088H1111111111O           0107064              48-1273715 0120967016                       
INS041005603889     00000044754960000009433600000070887120000004280846    AF05      FL1            A                                                  
INS051005603889                                                                                        010                                            
INS010011005608821     LISA MINICOZZI                19      JARVIS ST                                           HUNTINGTON           NY117430000     
INS021005608821                                   19 JARVIS STREET                                                                                    
INS031005608821     HUNTINGTON           NY1174300006314274508H6314274508O           0108104              48-1273715 0121172607                       
INS041005608821     00000452000000000006628800000289718120000002673750    AF05      FL1            A                                                  
INS051005608821                                                                                        010                                            
INS010011005611445     SUSAN ALBERDA                 67      FOX BLVD                                            MASSAPEQUA           NY117580000     
INS021005611445                                   67 FOX BLVD                                                                                         
INS031005611445     MASSAPEQUA           NY1175800005167994643H1111111111O           0108084              48-1273715 0121328244                       
INS041005611445     00000468501890000018366600000393642120000013173852    AF05      FL1            A                                                  
INS051005611445                                                                                        010                                            
INS010011005623051     MICHAEL HOWELL                1       NEWTONS CORNER RD     A                             HOWELL               NJ077310000     
INS021005623051                                   1 A NEWTONS CORNER ROAD                                                                             
INS031005623051     HOWELL               NJ0773100007322029873H7324580997O           0102074              48-1273715 0121192265                       
INS041005623051     00000441933660000009684400000223275120000015938751    AD06      BL1            A                                                  
INS051005623051                                                                                        010                                            
INS010011005657539     EVELYN ZAMORA                 4726  SW186TH WAY                                           HOLLYWOOD            FL330290000     
INS021005657539                                   4726 SW 186TH WAY                                                                                   
INS031005657539     HOLLYWOOD            FL3302900001111111111H9544333849O           0103084              48-1273715 0121306567                       
INS041005657539     00000623030840000068244600000404389120000020853884    AF05      FL1            A                                                  
INS051005657539                                                                                        010                                            
INS010011005658057     BOZENA S BIELAK                  158  BATHURST AVE                                        NORTH ARLINGTON      NJ070310000     
INS021005658057                                   158 BATHURST AVE                                                                                    
INS031005658057     NORTH ARLINGTON      NJ0703100002019556075H2019556177O           0101114              48-1273715 0121353903                       
INS041005658057     00000482962940000023328300000367366120000001702747    AD07      BL1            A                                                  
INS051005658057                                                                                        012                                            
INS010011005662273     JASON BLUM                    11730   ST ANDREWS PL         3 307                         WEST PALM BEACH      FL334140000     
INS021005662273                                   3416 COLLONADE DR                                                                                   
INS031005662273     WELLINGTON           FL3346700001111111111H1111111111O           010407300434292469   48-1273715 0121383474                       
INS041005662273     00000303593160000033140700000183569120000010265174    AE02      AL1            A                                                  
INS051005662273     CHANGED TYPE P: TO AN A NO CONTACT INSPECTION                                      016                                            
INS010011005677339     JULIA TORRES                  2807    WINDHAM DR                                          EUSTIS               FL327260000     
INS021005677339                                   2807 WINDHAM DR                                                                                     
INS031005677339     EUSTIS               FL3272600003525513847H3525513945O           0101114              52-0883107 1707282075                       
INS041005677339     00000155505440000001973200000127175120000000538188    AE02      AL1            A                                                  
INS051005677339     CHANGED TYPE P: TO AN A NO CONTACT INSPECTION                                      010                                            
INS010011005688013     JEANETTA P HATCHETT           1806    CYCLONE ST                                          PALM BAY             FL329070000     
INS021005688013                                   1806 CYCLONE ST                                                                                     
INS031005688013     PALM BAY             FL3290700003219143366H3214277676O           0108084              48-1273715 0121329069                       
INS041005688013     00000136288910000012541700000154253120000004742344    AF05      FL1            A                                                  
INS051005688013                                                                                        010                                            
INS010011005704729     BOBBY J OSBORNE                13306  DOLCETTO COVE                                       FORT WAYNE           IN468450000     
INS021005704729     SUSAN R OSBORNE               216 HIGHWAY 333                                                                                     
INS031005704729     COLUMBIANA           AL3505100001111111111H9999999999O           0102064              52-0883107 1698946481                       
INS041005704729     00000182765130000036505600000159383120000011301550    AE02      AL1            A                                                  
INS051005704729     CHANGED TYPE P: TO AN A NO CONTACT INSPECTION                                      010                                            
INS010011005706211     MAURICE D HUNTER                 544  EAST 35TH STREET                                    WILMINGTON           DE198020000     
INS021005706211                                   207 N BROOM ST                                                                                      
INS031005706211     WILMINGTON           DE1980500001111111111H1111111111O           0108084              48-1273715 0121278702                       
INS041005706211     00000116316350000006348400000097729120000002777191LUSIAB01      EL1            A                                                  
INS051005706211     ADDED U TO MAN CODE INCLUSION                                                      021                                            
INS010011005722515     JOHANE FANFAN                     14  NOONANS LANE                                        HOLBROOK             MA023430000     
INS021005722515     WEINER PAUL                   14 NOONANS LANE                                                                                     
INS031005722515     HOLBROOK             MA0234300007819862726H6179711000O           010210300431686351   48-1273715 0121467168                       
INS041005722515     00000542655710000009496200000288848120000004514682    AF05      FL1            A                                                  
INS051005722515                                                                                        010                                            
INS010011005768211     JEANNE M CAPPA                 17-19  PARKER ST                                           ATTLEBORO            MA027030000     
INS021005768211                                   2 BROOKSIDE ROAD                                                                                    
INS031005768211     MANSFIELD            MA0204800005082619555H6179291500O           0102104              48-1273715 0121479018                       
INS041005768211     00000309912980000007711200000218543120000003453677    AF05      FL1            A                                                  
INS051005768211                                                                                        013                                            
INS010011005779531     DIEGO JIMENEZ                  17000  76TH ST N                                           LOXAHATCHEE          FL334700000     
INS021005779531                                   3244 KENTWORTH LN                                                                                   
INS031005779531     ALPHARETTA           GA3000400006783391827H1111111111O           0109074              48-1273715 0121146465                       
INS041005779531     00000162155970000019525000000142598120000006542018    AF05      FL1            A                                                  
INS051005779531                                                                                        080                                            
INS010011005793193     MAURICETTE PATTERSON          2211  S BRADDOCK AVE                                        PITTSBURGH           PA152180000     
INS021005793193     LAMONT PATTERSON              2211 S BRADDOCK AVE                                                                                 
INS031005793193     PITTSBURGH           PA1521800004122712129H1111111111O           0103074              48-1273715 0121334307                       
INS041005793193     00000064324100000009439000000059548120000004195880    AF05      FL1            A                                                  
INS051005793193                                                                                        010                                            
INS010011005794217     ERICK SCHULZ                       4  DAYTON COURT                                        SICKLERVILLE         NJ080810000     
INS021005794217     CHRISTINA SCHULZ              4 DAYTON COURT                                                                                      
INS031005794217     SICKLERVILLE         NJ0808100008567409487H1111111111O           0109084              48-1273715 0121491121                       
INS041005794217     00000263021170000022884600000229600120000007059862    AE02      AL1            A                                                  
INS051005794217     CHANGED TYPE P: TO AN A NO CONTACT INSPECTION                                      010                                            
INS010011005820319     MADELINE IOVINO               35      CARMINE DR                                          MAHOPAC              NY105410000     
INS021005820319     PETER IOVINO                  35 CARMINE DRIVE                                                                                    
INS031005820319     MAHOPAC              NY1054100001111111111H9142321896O           0110084              48-1273715 0121219431                       
INS041005820319     00000530000000000014574000000242917120000007676167    AF05      FL1            A                                                  
INS051005820319                                                                                        010                                            
INS010011005831035     VIC VAHIK MINASSIAN           10620   PASEO ALLEGRIA                                      SAN DIEGO            CA921270000     
INS021005831035     ROOBINA MINASI                10620 PASEO ALLEGRIA                                                                                
INS031005831035     SAN DIEGO            CA9212700008583358375H0000000000O           0104104              00-0000000 121495881                        
INS041005831035     00000692115580000023899200000367686120000005018910    AF05      FL1            A                                                  
INS051005831035                                                                                        010                                            
INS010011005839335     HEIDI AYBAR                   150     NEW MILFORD AVE                                     DUMONT               NJ076280000     
INS021005839335                                   150 NEW MILFORD AVE                                                                                 
INS031005839335     DUMONT               NJ0762800002013853750H2017678033O           0109084              48-1273715 0121533562                       
INS041005839335     00000459855010000041439200000397068120000012154633LUSIAB01      EL1            A                                                  
INS051005839335     ADDED U TO MAN CODE INCLUSION                                                      012                                            
INS010011005842693     JON R ANGLE                     1401  SILVER LAKE BLVD                                    LOS ANGELES          CA900260000     
INS021005842693                                   2393 SILVER LAKE BLVD                                                                               
INS031005842693     LOS ANGELES          CA9003900000000000000H1111111111O           0106104              48-1273715 0121523595                       
INS041005842693     00000148992960000000857200000085727120000000950519    AF05      FL1            A                                                  
INS051005842693                                                                                        080                                            
INS010011005849151     PATRICIA LAWRENCE             20      MAPLE AVE                                           PORT JEFFERSON STATIONY117760000     
INS021005849151                                   20 MAPLE AVE                                                                                        
INS031005849151     PORT JEFF STA        NY1177600006314745731H0000000000O           0109084              48-1273715 0121413926                       
INS041005849151     00000359070470000013187000000266337120000007870022LUSIAB01      EL1            A                                                  
INS051005849151     ADDED U TO MAN CODE INCLUSION                                                      010                                            
INS010011005860299     GREG WRIGHT                     5898  SILVER OAK CIRCLE                                   STOCKTON             CA952190000     
INS021005860299                                   5898 SILVER OAK CIRCLE                                                                              
INS031005860299     STOCKTON             CA9521900001111111111H4157656555O           0103094              48-1273715 0121597552                       
INS041005860299     00000461211130000023644100000168778120000006532861LUSIAB01      EL1            A                                                  
INS051005860299     ADDED U TO MAN CODE INCLUSION                                                      010                                            
INS010011005890353     SHALIMON ESFANDYARI           5561    OLYMPIC SPIRIT LN                                   LAS VEGAS            NV891130000     
INS021005890353     AKHTER RAHMANI                5561 OLYMPIC SPIRIT LN                                                                              
INS031005890353     LAS VEGAS            NV8911300007028628039H9999999999O           0111094              48-1273715 0121548683                       
INS041005890353     00000253595000000011996000000152048120000002789090    AF05      FL1            A                                                  
INS051005890353                                                                                        010                                            
INS010011005890601     MARWAN ABUSHAMMA                 188  SQUIRRELWOOD RD                                     WEST PATERSON        NJ074240000     
INS021005890601                                   188 SQIRRELWOOD RD                                                                                  
INS031005890601     WEST PATERSON        NJ0742400009733454551H0000000000O           0104094              52-0904874 142519227                        
INS041005890601     00000323189950000018113200000289377120000007070619    AE02      AL1            A                                                  
INS051005890601     CHANGED TYPE P: TO AN A NO CONTACT INSPECTION                                      012                                            
INS010011005902547     WALTER CABRAL                  16518  LONESDALE PLACE                                     TAMPA                FL336240000     
INS021005902547     JASMIN CABRAL                 16518 LONESDALE PLACE                                                                               
INS031005902547     TAMPA                FL3362400001111111111H9999999999O           0110094              48-1273715 0121610343                       
INS041005902547     00000207223840000011616000000141799120000002954197    AF05      FL1            A                                                  
INS051005902547                                                                                        010                                            
INS010011005902943     SANDRA GONZALES                   14  DUNWOOD ROAD                                        PORT WASHINGTON      NY110500000     
INS021005902943                                   5716 TWILIGHT CHASE ST                                                                              
INS031005902943     LAS VEGAS            NV8913000000000000000H7025044978O           0103084              48-1273715 0121653789                       
INS041005902943     00000645180320000030190800000341662120000020176977    AF05      FL1            A                                                  
INS051005902943                                                                                        012                                            
INS010011005908445     MARIA A BLANCO                 14117  HERITAGE LANE                                       SILVER SPRING        MD209060000     
INS021005908445                                   14117 HERITAGE LANE                                                                                 
INS031005908445     SILVER SPRING        MD2090600003018713445H1111111111O           0110084              48-1273715 0121498553                       
INS041005908445     00000466289880000034547700000294616120000008947749    AE02      AL1            A                                                  
INS051005908445     CHANGED TYPE P: TO AN A NO CONTACT INSPECTION                                      010                                            
INS010011005920499     AIDA GONZALEZ SANDOVAL        5240  N FIRST ST                                            FRESNO               CA937100000     
INS021005920499                                   5240 N FIRST ST                                                                                     
INS031005920499     FRESNO               CA9371000005597090233H5597090234O           0111094              48-1273715 0121617370                       
INS041005920499     00000202046550000009172600000128623120000002329281    AF05      FL1            A                                                  
INS051005920499                                                                                        010                                            
INS010011005924475     SONIA HIBBERT                   3919  GLENWOOD ROAD                                       BROOKLYN             NY112100000     
INS021005924475     CLAUDE HIBBERT                3919 GLENWOOD ROAD                                                                                  
INS031005924475     BROOKLYN             NY1121000001111111111H7184211245O           0108094              48-1273715 0121587251                       
INS041005924475     00000388298840000010720800000294207120000006717645    AF05      FL1            A                                                  
INS051005924475                                                                                        021                                            
INS010011005951767     KANTILAL C LALA               5612    LOS PUELOS WAY                                      SACRAMENTO           CA958350000     
INS021005951767     DEVI K LALA                   816 EAGLES NEST DR                                                                                  
INS031005951767     HEWITT               TX7664300000000000000H1111111111O           0106094              52-0883107 1699257576                       
INS041005951767     00000275331170000015469200000214228120000005704668    AF05      FL1            A                                                  
INS051005951767                                                                                        010                                            
INS010011006008559     ANA C PACHECO                   5124  112 COURT                                           MIAMI                FL331780000     
