HDR00174-2860973   26-4568855   668-00-0000  110411                                                                                                   
INS010011000608271     LEBA GAIL AUSTIN                 426  HUNTER AVENUE                                       Scotch Plains        NJ070760000     
INS021000608271                                   426 HUNTER AVENUE                                                                                   
INS031000608271     SCOTCH PLAINS        NJ0707600001111111111H9084732393O           010409300312929906   52-0883107 1673902308                       
INS041000608271     00000169839470000013145000000209686120000005424604    AF05      FL1            A                                                  
INS051000608271                                                                                        010                                            
INS010011000898211     RAUL T CONTRERAS              2025    WANDERING DOE LN                                    LAS VEGAS            NV891340000     
INS021000898211                                   PO BOX 16425                                                                                        
INS031000898211     IRVINE               CA9262300007148471168H0000000000O           010309390422099300   52-0883107 1674922987                       
INS041000898211     00000117873950000012760400000147843120000003971522    AF05      FL1            A                                                  
INS051000898211                                                                                        010                                            
INS010011002119905     WERNER C HINZ                 5       BIRCH RD                                            NEW MILFORD          CT067760000     
INS021002119905                                   5 BIRCH ROAD                                                                                        
INS031002119905     NEW MILFORD          CT0677600008607990321H8607990321O           0112104              52-0883107 1680621703                       
INS041002119905     00000147547440000006846000000129928120000000718100    AD07      BL1            A                                                  
INS051002119905                                                                                        010                                            
INS010011002163457     RONETTA FORDE                 218-40  103RD AVE                                           JAMAICA              NY114290000     
INS021002163457                                   218-40 103RD AVENUE                                                                                 
INS031002163457     JAMAICA              NY1142900007184792733H0000000000O           010510400446643496   52-0904874 0604351569                       
INS041002163457     00000189427400000001675200000175839120000002126820    AD07      BL1            A                                                  
INS051002163457                                                                                        010                                            
INS010011002385795     JOHN GRAPSAS                  196     STATION RD            -07                           FLUSHING             NY113580000     
INS021002385795                                   196-07 STATION ROAD                                                                                 
INS031002385795     FLUSHING             NY1135800007183572278H9999999999O           0101114              52-0883107 1681923017                       
INS041002385795     00000086152270000000276000000171781120000000689884    AD07      BL1            A                                                  
INS051002385795                                                                                        021                                            
INS010011002429387     VICTOR B GONZALEZ             804     DALEVIEW DR                                         SILVER SPRING        MD209010000     
INS021002429387     JENNIFER DOLAN                804 DATEVIEW DR                                                                                     
INS031002429387     SILVER SPRING        MD2090100001111111111H3019518109O           011210303396309860   52-0883107 1682259264                       
INS041002429387     00000223733440000005169600000219796120000001150676    AD07      BL1            A                                                  
INS051002429387                                                                                        010                                            
INS010011002709515     PHILLIP C WALLACE             2       GLENN ST                                            NEWNAN               GA302630000     
INS021002709515                                   177 SWANSON RD                                                                                      
INS031002709515     FAYETTEVILLE         GA3021400007704877692H1111111111O           010410300317515145   52-0904874 605280118                        
INS041002709515     00000088539810000003021300000086597120000001151670    AF05      FL1            A                                                  
INS051002709515                                                                                        010                                            
INS010011002805263     CORY L EDWARDS                479     ERVIN LN                                            COVINGTON            TN380190000     
INS021002805263                                   479 ERVIN LANE                                                                                      
INS031002805263     COVINGTON            TN3801900009014762067H9016877929O           011110300484278246   52-0883107 1684521648                       
INS041002805263     00000109099130000001861600000073744120000000461080    AD07      BL1            A                                                  
INS051002805263                                                                                        010                                            
INS010011003341219     JOHN STOCKDALE                1662    CHERYL TER                                          RIVERDALE            GA302960000     
INS021003341219                                   1662 CHERYL  TERRACE                                                                                
INS031003341219     RIVERDALE            GA3029600001111111111H0000000000O           0111104              52-0883107 1689009913                       
INS041003341219     00000103495230000002688000000086958120000000548628    AF05      FL1            A                                                  
INS051003341219                                                                                        010                                            
INS010011003344205     MUSTAK AHMED                   81-28  DONGAN AVE                                          ELMHURST             NY113730000     
INS021003344205                                   81-28 DONGAN AVE                                                                                    
INS031003344205     ELMHURST             NY1137300007184247658H6466459126O           0101104              52-0883107 1688726503                       
INS041003344205     00000442028960000010487300000424871120000006902809    AF05      FL1            A                                                  
INS051003344205                                                                                        013                                            
INS010011003506985     MELISSA SUE BRADLEY           3385    FIESTA DR                                           LAKE HAVASU CITY     AZ864040000     
INS021003506985                                   1990 MCCULLOCH BLVDN                                                                                
INS031003506985     LK HAVASU CTY        AZ8640300009282089429H9282089300O           0111104              52-0883107 1692200161                       
INS041003506985     00000128431570000004887400000092099120000000563942    AD07      BL1            A                                                  
INS051003506985                                                                                        010                                            
INS010011003540661     ROBERT HOSEY                  8063    OLD HAZELWOOD RD                                    NORTH CHARLESTON     SC294180000     
INS021003540661                                   PO BOX 61304                                                                                        
INS031003540661     CHARLESTON           SC2941900001111111111H8435541002O           010409400319909762   52-0883107 1692087139                       
INS041003540661     00000125660100000008217000000111171120000002904499    AF05      FL1            A                                                  
INS051003540661                                                                                        021                                            
INS010011003802897     YOUDELINE AUGUSTIN            183     EDNA ST               -185                          BRIDGEPORT           CT066060000     
INS021003802897                                   183-185 EDNA AVENUE                                                                                 
INS031003802897     BRIDGEPORT           CT0661000002033620891H2033243588O           010410303396374194   52-0883107 1693769845                       
INS041003802897     00000238018780000009384900000299027120000003924138    AF05      FL1            A                                                  
INS051003802897                                                                                        012                                            
INS010011004009021     VALARIE C OWENS               5138    STONE COVE ST                                       NORTH LAS VEGAS      NV890310000     
INS021004009021                                   5138 STONE COVE STREET                                                                              
INS031004009021     NORTH LAS VEGAS      NV8908100007028343393H3104829544O           0112094              52-0883107 1694713238                       
INS041004009021     00000149426960000010462000000129852120000002312104    AF05      FL1            A                                                  
INS051004009021                                                                                        010                                            
INS010011004030217     INES ANTUNEZ                  20270 W ROLLINS RD                                          LAKE VILLA           IL600460000     
INS021004030217                                   20270 W ROLLINS RD                                                                                  
INS031004030217     LAKE VILLA           IL6004600001111111111H0000000000O           011109300426807093   52-0883107 1694774670                       
INS041004030217     00000167725680000011646600000182258120000003350030    AF05      FL1            A                                                  
INS051004030217                                                                                        010                                            
INS010011004097331     RANDY HOLLAND                 2424    LA ESTRELLA                                         HENDERSON            NV890140000N    
INS021004097331     DONNA HOLLAND                 2424 LA ESTRELLA                                                                                    
INS031004097331     HENDERSON            NV8901400007025780360H7025780360O           011210400429538808   52-0883107 1694915871                       
INS041004097331     00000190711100000002480000000139510120000000722350    B650      FL1            A                                                  
INS051004097331     VERIFY OCCUPANCY                                                                                                                  
INS010011004249551     MATTHEW L FOREMAN             1595    ASHTON RD                                           SAPULPA              OK740660000     
INS021004249551                                   1595 ASHTON RD                                                                                      
INS031004249551     SAPULPA              OK7406600009999999999H1111111111O           010111330432677690   48-1273715 0003479630                       
INS041004249551     00000101603430000001819200000087782120000000360070    AE02      AL1            A                                                  
INS051004249551     CHANGED TYPE P: TO AN A NO CONTACT INSPECTION                                      010                                            
INS010011004384259     SONIA MINOTT                  741   E 79TH ST                                             BROOKLYN             NY112360000     
INS021004384259                                   741 EAST 79TH STREET                                                                                
INS031004384259     BROOKLYN             NY1123600007182410420H1111111111O           0111094              48-1273715 3673010                          
INS041004384259     00000359411730000009497200000286012120000004803684    AF05      FL1            A                                                  
INS051004384259                                                                                        012                                            
INS010011004440705     LEWIS J NIAD                  4461  N 41ST CT                                             HOLLYWOOD            FL330210000     
INS021004440705                                   4461 N 41ST COURT                                                                                   
INS031004440705     HOLLYWOOD            FL3302100009549644466H0000000000O           0112104              52-0904874 930707044                        
INS041004440705     00000159539820000000604300000155068120000000825897    AF05      FL1            A                                                  
INS051004440705                                                                                        010                                            
INS010011004666697     MARY CONYERS TAYLOR              104  MAYCROFT COURT                                      TYRONE               GA302900000     
INS021004666697     PERRY A TAYLOR                104 MAYCROFT COURT                                                                                  
INS031004666697     TYRONE               GA3029000007707742920H9999999999O           0112104              48-1273715 0120199825                       
INS041004666697     00000332357670000000000000000231170120000001155850    AF05      FL1            A                                                  
INS051004666697                                                                                        010                                            
INS010011004678577     RUTH PEREZ DE HERNANDEZ        13950  BADGER AVENUE                                       LOS ANGELES          CA913420000     
INS021004678577                                   13950 BADGER AVENUE                                                                                 
INS031004678577     LOS ANGELES          CA9134200001111111111H2134838222O           0101114   0          48-1273715 0120067575                       
INS041004678577     00000400378900000004609800000337407120000001395726    AD07      BL1            A                                                  
INS051004678577                                                                                        010                                            
INS010011004689699     DANIEL T PETROCELLI             9127  ZOELLNER DRIVE                                      CINCINNATI           OH452510000     
INS021004689699     KIMBERLY M PETROCELLI         9127 ZOELLNER DRIVE                                                                                 
INS031004689699     CINCINNATI           OH4525100005139319120H1111111111O           010211300321462611   48-1273715 0120263316                       
INS041004689699     00000172652760000008647900000150178120000000548392    AD07      BL1            A                                                  
INS051004689699                                                                                        010                                            
INS010011004695043     JUAN CRUZ HIGUERA             2848    VIA SUSPIRO                                         SAN DIEGO            CA921730000     
INS021004695043     BEATRIZ HIGUERA               2848 VIA SUSPIRO                                                                                    
INS031004695043     SAN DIEGO            CA9217300000000000000H6198623451O           0112104              48-1273715 0003665183                       
INS041004695043     00000286373710000005677000000142825120000000770895    AD07      BL1            A                                                  
INS051004695043                                                                                        010                                            
INS010011004786271     HYUNG J KIM                     3646N WESTRIDGE AVENUE                                    COVINA               CA917240000     
INS021004786271     JOY T SORIANO-KIM             3646 NORTH WESTRIDGE AVENUE                                                                         
INS031004786271     COVINA               CA9172400000000000000H1111111111O           0101114              48-1273715 0120328018                       
INS041004786271     00000444990240000005175100000298875120000001247251    AD07      BL1            A                                                  
INS051004786271                                                                                        010                                            
INS010011004987325     STEVAN R WADDELL              6600    EDGEWOOD ST                                         ROCKFORD             MN553730000     
INS021004987325                                   6600 EDGEWOOD ST                                                                                    
INS031004987325     ROCKFORD             MN5537300007634775397H7634388108O           0101114              48-1273715 0120431012                       
INS041004987325     00000162118090000001888800000118560120000000493128    AD07      BL1            A                                                  
INS051004987325                                                                                        010                                            
INS010011005032519     LAWRENCE T BRENNER            34      BROOKLAWN DR                                        MERIDEN              CT064500000     
INS021005032519                                   34 BROOKLAWN DR                                                                                     
INS031005032519     MERIDEN              CT0645000002036399767H2038866013O           0101114              48-1273715 0120554195                       
INS041005032519     00000119251400000003660400000101713120000000443456    AD07      BL1            A                                                  
INS051005032519                                                                                        010                                            
INS010011005081359     CYNTHIA GARLEY                 10005  RUSSELL AVE  N        8D                            BROOKLYN PARK        MN554470000     
INS021005081359     DUSTY KAINE                   10005 RUSSELL AVENUE N UNIT 8                                                                       
INS031005081359     BROOKLYN PARK        MN5544400007634251118H7638980142O           0110104              48-1273715 0120677505                       
INS041005081359     00000113820330000003258000000085448120000000633820    AF05      FL1            A                                                  
INS051005081359                                                                                        016                                            
INS010011005139447     GARY L TIPTON                 5728    LAKE MICHIGAN DR                                    FAIRFIELD            OH450140000     
INS021005139447                                   5728 LAKE MICHIGAN DR                                                                               
INS031005139447     FAIRFIELD            OH4501400005138295299H5132437948O           011010300322048599   48-1273715 0120688350                       
INS041005139447     00000138352290000009462700000122613120000000933009    AF05      FL1            A                                                  
INS051005139447                                                                                        010                                            
INS010011005210495     JAMES A SENACK                355     SPRINGS CROSSING                                    CANTON               GA301140000     
INS021005210495     STEPHANIE A SENACK            355 SPRINGS CROSSING                                                                                
INS031005210495     CANTON               GA3011400007707207524H1111111111O           0111104              48-1273715 0003830051                       
INS041005210495     00000176066180000002246500000120034120000000733049    AE02      AL1            A                                                  
INS051005210495     CHANGED TYPE P: TO AN A NO CONTACT INSPECTION                                      010                                            
INS010011005216955     MARY A WILLIAMS                12010  BORK DRIVE                                          CLINTON              MD207350000     
INS021005216955                                   12010 BORK DRIVE                                                                                    
INS031005216955     CLINTON              MD2073500001111111111H3016187011O           0112104              52-0883107 1698012521                       
INS041005216955     00000219253120000003876000000208079120000001079155    AD07      BL1            A                                                  
INS051005216955                                                                                        010                                            
INS010011005267487     DANIEL P SORENSEN             9348    NEWCASTLE RD                                        SAINT PAUL           MN551250000     
INS021005267487     DARCIE K SORENSEN             9348 NEWCASTLE RD                                                                                   
INS031005267487     WOODBURY             MN5512500006514936789H6512468231O           0101114              48-1273715 0120873734                       
INS041005267487     00000223628990000004704000000175230120000000747960    AE02      AL1            A                                                  
INS051005267487     CHANGED TYPE P: TO AN A NO CONTACT INSPECTION                                      010                                            
INS010011005457369     MICHELLE HARGROVE REDDIC         139  ROBINHOOD LANE                                      ABERDEEN             NC283150000     
INS021005457369                                   139 ROBINHOOD LANE                                                                                  
INS031005457369     ABERDEEN             NC2831500009109443470H9105517640O           0106104              48-1273715 0120982995                       
INS041005457369     00000058525420000001844400000052279120000000584117    AF05      FL1            A                                                  
INS051005457369                                                                                        010                                            
INS010011005508989     BORIS RAISHEVICH                1054  CRAIGVILLE ROAD                                     CHESTER              NY109180000     
INS021005508989     MICHELLE RAISHEVICH           1054 CRAIGVILLE ROAD                                                                                
INS031005508989     CHESTER              NY1091800008457832799H5512063676O           0107074              48-1273715 0121196592                       
INS041005508989     00000118447010000002316400000147035120000005911457    AF05      FL1            A                                                  
INS051005508989                                                                                        010                                            
INS010011005608409     ROSE HENRY                    620   N 9TH ST                                              READING              PA196040000     
INS021005608409                                   344 UPLAND ST                                                                                       
INS031005608409     WESTBURY             NY1159000005555555555H5555555555O           0104104              48-1273715 0121116026                       
INS041005608409     00000030329550000003267000000045773120000000628379LUSIAB01      EL1            A                                                  
INS051005608409     ADDED U TO MAN CODE INCLUSION                                                      013                                            
INS010011005657695     MICHAEL A FIORENTINE             116W OWASSA TURNPIKE                                     NEWTON               NJ078600000     
INS021005657695                                   116 WEST OWASSA TURNPIKE                                                                            
INS031005657695     NEWTON               NJ0786000000000000000H1111111111O           0110104              48-1273715 0121315281                       
INS041005657695     00000205607490000002115000000180372120000001282762    AD07      BL1            A                                                  
INS051005657695                                                                                        010                                            
INS010011005705551     JAMES KIM                     2341    APPLEWOOD CIR         57                            FULLERTON            CA928330000     
INS021005705551                                   8163 LAGUNA CT                                                                                      
INS031005705551     STANTON              CA9068000005555555555H5555555555O           0102094              48-1273715 0121241893                       
INS041005705551     00000432054680000021039100000159827120000006424058    AF05      FL1            A                                                  
INS051005705551                                                                                        016                                            
INS010011005808991     NICHOLAS K HOLLANDER          619     REIS AVE                                            EVANSVILLE           IN477110000     
INS021005808991     JULIE C HOLLANDER             619 REIS AVE                                                                                        
INS031005808991     EVANSVILLE           IN4771100008123037577H0000000000O           0108104              48-1273715 0121367330                       
INS041005808991     00000064642900000002263800000050316120000000473618    AE02      AL1            A                                                  
INS051005808991     CHANGED TYPE P: TO AN A NO CONTACT INSPECTION                                      010                                            
INS010011005866437     PATRICK DINOVI                163-63  22ND AVE                                            WHITESTONE           NY113570000     
INS021005866437                                   163 63 22ND AVE                                                                                     
INS031005866437     WHITESTONE           NY1135700007186314897H7185912000O           0101114              48-1273715 0121510804                       
INS041005866437     00000334270770000001117800000221658120000000897810    AD07      BL1            A                                                  
INS051005866437                                                                                        021                                            
INS010011005888233     CHARLES J HASEMAN JR          250     JACKSON ST                                          MATAWAN              NJ077470000     
INS021005888233     PATRICIA K HASEMAN            250 JACKSON STREET                                                                                  
INS031005888233     MATAWAN              NJ0774700007328650666H7328650666O           0111104              48-1273715 0121512179                       
INS041005888233     00000205232370000003010700000149369120000000920723    AE02      AL1            A                                                  
INS051005888233     CHANGED TYPE P: TO AN A NO CONTACT INSPECTION                                      010                                            
INS010011005912033     SONIA JAMIESON                3305    FISH AVE                                            BRONX                NY104690000     
INS021005912033                                   128 51 SW 31ST COURT                                                                                
INS031005912033     MIARMAR              FL3302700000000000000H9543472786O           0112104              48-1273715 0121642862                       
INS041005912033     00000307176870000006280900000264236120000001374639    AD07      BL1            A                                                  
INS051005912033                                                                                        012                                            
INS010011005946643     LONNIE JORDAN                 153     MOUNTAIN VISTA DR                                   FRIEDENS             PA155410000     
INS021005946643                                   PO BOX 310                                                                                          
INS031005946643     ALLISON PARK         PA1510103108142799061H8142792041O           0108104              48-1273715 0121554598                       
INS041005946643     00000215825990000001421800000162967120000001482407    AF05      FL1            A                                                  
INS051005946643                                                                                        010                                            
INS010011006120297     GILBERT CISNEROS                 212  KATE LANE                                           OAKLEY               CA945610000     
INS021006120297                                   212 KATE LANE                                                                                       
INS031006120297     OAKLEY               CA9456100000000000000H1111111111O           0111084              48-1273715 0121830749                       
INS041006120297     00000468298410000010482700000186350120000011173210    AD07      BL1            A                                                  
INS051006120297                                                                                        010                                            
INS010011006199903     PAUL S HARAGOS                1333    PITTSBURGH RD                                       UNIONTOWN            PA154010000     
INS021006199903     MARY JO HARAGOS               1333 PITTSBURGH ROAD                                                                                
INS031006199903     UNIONTOWN            PA1540100007244374200H7249842810O           0111104              48-1273715 0121653555                       
INS041006199903     00000255874320000000986000000132649120000000805754    AF05      FL1            A                                                  
INS051006199903                                                                                        010                                            
INS010011006246431     JOANNE SUKOW                     126  CHEROKEE LANE                                       APTOS                CA950030000     
INS021006246431                                   126 CHEROKEE LANE                                                                                   
INS031006246431     APTOS                CA9500300008316899729H5106618241O           0105104              48-1273715 0121827141                       
INS041006246431     00000750378900000018210200000303681120000004205341    AE02      AL1            A                                                  
INS051006246431     CHANGED TYPE P: TO AN A NO CONTACT INSPECTION                                      010                                            
INS010011006252199     MONIQUE RINI                     197  APPLEGATE LANE                                      EAST BRUNSWICK TWP   NJ088160000     
INS021006252199                                   197 APPLEGATE LANE                                                                                  
INS031006252199     EAST BRUNSWICK       NJ0881600007326131540H7326131540O           0112104              48-1273715 0121755100                       
INS041006252199     00000223488070000012599400000161718120000000941072    AD07      BL1            A                                                  
INS051006252199                                                                                        016                                            
INS010011006458929     ROBERT E SAUNDERS JR          293     HOCKING AVE                                         LOGAN                OH431380000     
INS021006458929                                   293 Hocking Ave                                                                                     
INS031006458929     Logan                OH4313800001111111111H9999999999O           0106104              48-1273715 0122105742                       
INS041006458929     00000033015940000001483300000043320120000000479018    AE02      AL1            A                                                  
INS051006458929     CHANGED TYPE P: TO AN A NO CONTACT INSPECTION                                      010                                            
INS010011006474835     RICKEY O LOFTON SR            11559   AMELIA DR                                           RANCHO CUCAMONGA     CA917010000     
INS021006474835     DORIS LOFTON                  9474 CASTILLANA CT                                                                                  
INS031006474835     LAS VEGAS            NV8914700007022479296H1111111111O           0106104              48-1273715 0121996717                       
INS041006474835     00000426779860000009699000000209228120000002664472    AF05      FL1            A                                                  
INS051006474835                                                                                        010                                            
INS010011006522179     KIUMARS BOURBOUR                   5  VISTA MAR DRIVE                                     LAGUNA NIGUEL        CA926770000     
INS021006522179     MARY GEORGE BOURBOUR          5 VISTAMAR DRIVE                                                                                    
INS031006522179     LAGUNA NIGUEL        CA9267700009494293677H1111111111O           0101114              48-1273715 0122210774                       
INS041006522179     00000538183350000012724000000417110120000001796970    AD07      BL1            A                                                  
INS051006522179                                                                                        010                                            
INS010011006582603     SONIA P LOPEZ                   8531S PARNELL AVENUE                                      CHICAGO              IL606200000     
INS021006582603                                   5207 S CALIFORNIA AVE                                                                               
INS031006582603     CHICAGO              IL6063200007734874109H3127473823O           0112094              52-0904874 326742530                        
INS041006582603     00000192900000000007254800000101083120000002035036    AE02      AL1            A                                                  
INS051006582603     CHANGED TYPE P: TO AN A NO CONTACT INSPECTION                                      010                                            
INS010011006622037     MARIE S BERNARD               21      MOULTON ST                                          LYNN                 MA019050000     
INS021006622037     JEAN F CHERY                  21 MOULTON ST                                                                                       
INS031006622037     LYNN                 MA0190500008572379679H8572379679O           0104104              48-1273715 0122345798                       
INS041006622037     00000283402920000003891400000115709120000001640791    AD07      BL1            A                                                  
INS051006622037                                                                                        010                                            
INS010011006632259     EDDIE L FORD                    9061  ROYAL MELBOURNE                                     PEYTON               CO808310000     
INS021006632259                                   9061 Royal Melbourne Circle                                                                         
INS031006632259     Colorado Springs     CO8083100001111111111H2222222222O           0102114              52-0904874 326746285                        
INS041006632259     00000263868420000003252800000111077120000000370427    AD07      BL1            A                                                  
INS051006632259                                                                                        010                                            
INS010011006653503     CASIMIRA T LUMIDAO            420     B ST                                                DALY CITY            CA940140000     
INS021006653503                                   420 B STREET                                                                                        
INS031006653503     COLMA                CA9401400006509929815H7076422592O           0103094              48-1273715 0122226925                       
INS041006653503     00000740330240000044432700000455449120000012823550    AE02      AL1            A                                                  
INS051006653503     CHANGED TYPE P: TO AN A NO CONTACT INSPECTION                                      010                                            
INS010011006680027     BRUCE RANDALL CLARK           752     HOOKAHUA PL                                         LAHAINA              HI967610000     
INS021006680027     ROBIN CHANG CLARK             752 HOOKAHUA PLACE                                                                                  
INS031006680027     LAHAINA              HI9676100008086611473H8082810493O           0108104              48-1273715 0122089883                       
INS041006680027     00000330000000000006617100000189063120000000347739    AF05      FL1            A                                                  
INS051006680027                                                                                        010                                            
INS010011006781585     HANAN AYOUB                   1445    HEATHER CT                                          SAINT AUGUSTINE      FL320920000     
INS021006781585                                   1445 HEATHER COURT                                                                                  
INS031006781585     SAINT AUGUSTINE      FL3209200009049400080H1111111111O           0103104              00-0000000 0122468559                       
INS041006781585     00000199896440000012389800000131770120000001912380    AF05      FL1            A                                                  
INS051006781585                                                                                        010                                            
INS010011006873515     LORENA MURO                     6576  CHARLES AVENUE                                      MIRA LOMA            CA917520000     
INS021006873515     JESUS MURO                    6576 Charles Ave                                                                                    
INS031006873515     Mira Loma            CA9175200009512207484H1111111111O           0109104              48-1273715 0122490195                       
INS041006873515     00000456674480000011368500000221490120000001885605    AD07      BL1            A                                                  
INS051006873515                                                                                        010                                            
INS010011006940751     JOHN G KROMSCHROEDER JR       8975    LAMAR ST                                            SPRING VALLEY        CA919770000     
INS021006940751                                   10119 Toledo Rd                                                                                     
INS031006940751     Spring Valley        CA9197700006196607700H0000000000O           0112104              52-0904874 328270636                        
INS041006940751     00000298855290000004856400000184106120000000819666    AD07      BL1            A                                                  
INS051006940751                                                                                        012                                            
INS010011006942369     LLANA DALEY BOWEN               5450NWCOMER STREET                                        PORT ST LUCIE        FL349860000     
INS021006942369                                   5450 NW COMER ST                                                                                    
INS031006942369     PORT ST LUCIE        FL3498600007723447392H7727082802O           0101104              00-0000000 0122647043                       
INS041006942369     00000162375750000008381200000091336120000002090447    AF05      FL1            A                                                  
INS051006942369                                                                                        010                                            
INS010011006960023     ROBIN ROBINSON                41      LIBERTY LN                                          PETALUMA             CA949520000     
INS021006960023     NANCY DELORENZO               41 Liberty Lane                                                                                     
INS031006960023     Petaluma             CA9495200007076581183H7076956800O           0101114              00-0000000 0122670259                       
INS041006960023     00000407375000000000997200000228870120000000925452    AD07      BL1            A                                                  
INS051006960023                                                                                        010                                            
INS010011006989303     DALE F GOOCH                  6532    CEDAR MILL CV                                       ACWORTH              GA301020000     
INS021006989303     SONJA P GOOCH                 6532 Cedar Mill Cove                                                                                
INS031006989303     Acworth              GA3010200007709753900H1111111111O           0101114              48-1273715 0122660852                       
INS041006989303     00000146560700000003847200000082883120000000372268    AD07      BL1            A                                                  
INS051006989303                                                                                        010                                            
INS010011007035361     ISABELITA DEMESA              28      POPLAR GROVE                                        PRINCETON            WV247400000     
INS021007035361                                   441 POPLAR GROVE DR                                                                                 
INS031007035361     Princeton            WV2474000003048982717H3048754724O           0101114              48-1273715 0122392656                       
INS041007035361     00000126205820000000383800000098230120000000390055LUSIAB01      EL1            A                                                  
INS051007035361     ADDED U TO MAN CODE INCLUSION                                                      010                                            
INS010011007037151     JANICE HARE                   2415    WOODBERRY AVE                                       HEMET                CA925440000     
INS021007037151     LEWIS HARE                    35570 BILLIE ANN RD                                                                                 
INS031007037151     WILDOMAR             CA9259500009516787291H9516787291O           0111104              48-1273715 0122618123                       
INS041007037151     00000182000000000001450200000096688120000000594630    AD07      BL1            A                                                  
INS051007037151                                                                                        010                                            
INS010011007157637     ROBERT MCDERMOTT              17      LEISURE WAY                                         MOHEGAN LAKE         NY105470000     
INS021007157637     MICHELLE MCDERMOTT            17 LEISURE WAY                                                                                      
INS031007157637     MOHEGAN LAKE         NY1054700001111111111H7187595560O           0107094              48-1273715 0122689468                       
INS041007157637     00000276311380000007374300000179675120000004642469    AF05      FL1            A                                                  
INS051007157637                                                                                        016                                            
INS010011007177031     WIJITRA INTARAKUNCHIT           9631NW43 ST                                               SUNRISE              FL333510000     
INS021007177031                                   9631 NW 43 STREET                                                                                   
INS031007177031     SUNRISE              FL3335100009543031004H0000000000O           01060930110535731504 48-1273715 0122639512                       
INS041007177031     00000368824830000020875000000242307120000005781811    AF05      FL1            A                                                  
INS051007177031                                                                                        010                                            
INS010011007178633     FRANCINE SHACKLEFORD          19      GAINSCOTT LN                                        WILLINGBORO          NJ080460000     
INS021007178633                                   19 GAINSCOTT LANE                                                                                   
INS031007178633     WILLINGBORO          NJ0804600006098809573H6093728635O           0102114              48-1273715 0122789936                       
INS041007178633     00000146557900000002480500000143105120000000454120    AD07      BL1            A                                                  
INS051007178633                                                                                        010                                            
INS010011007186693     ERNIE L CAISON                13105   CANOVA DR                                           MANASSAS             VA201120000     
INS021007186693                                   13105 CANOVA DRIVE                                                                                  
INS031007186693     MANASSAS             VA2011200007037915224H1111111111O           0101114              48-1273715 0122862914                       
INS041007186693     00000312681450000001806600000159601120000000656470LUSIAB01      EL1            A                                                  
INS051007186693     ADDED U TO MAN CODE INCLUSION                                                      010                                            
INS010011007190307     TRINA N SCRUGGS               27      PERKINS CT                                          GREER                SC296510000     
INS021007190307                                   27 PERKINS COURT                                                                                    
INS031007190307     GREER                SC2965100000000000000H8642752665O           0112104              48-1273715 0122691657                       
INS041007190307     00000115599670000001336000000061409120000000320659    AD07      BL1            A                                                  
INS051007190307                                                                                        010                                            
INS010011007195587     RUDOLPH A BRYAN                 3126  HAMBLIN WAY                                         WELLINGTON           FL334140000     
INS021007195587     OLIVE M BRYAN                 3126 HAMBLIN WAY                                                                                    
INS031007195587     WELLINGTON           FL3341400005617936986H1111111111O           0104104              48-1273715 0122905752                       
INS041007195587     00000664872870000027704600000319597120000004406262    AE02      AL1            A                                                  
INS051007195587     CHANGED TYPE P: TO AN A NO CONTACT INSPECTION                                      010                                            
INS010011007242223     YEN LINH THI DOAN             7205    ZEST ST                                             SAN DIEGO            CA921390000     
INS021007242223                                   7205 ZEST ST.                                                                                       
INS031007242223     SAN DIEGO            CA9213900006192558960H6196900357O           0106104              48-1273715 0122864182                       
INS041007242223     00000418311150000018968400000316130120000003667114    AF05      FL1            A                                                  
INS051007242223                                                                                        010                                            
INS010011007342213     SCHAWNITA N O'DELL            5093    ANCHORSTONE DR                                      WOODBRIDGE           VA221920000     
INS021007342213                                   5093 ANCHORSTONE DRIVE                                                                              
INS031007342213     WOODBRIDGE           VA2219200007033714648H0000000000O           0112104              48-1273715 0122778670                       
INS041007342213     00000331900140000005091000000126456120000000679792    AD07      BL1            A                                                  
INS051007342213                                                                                        016                                            
INS010011007364175     JUANCHO J ROXAS               1754    DANIELLE WAY                                        UPLAND               CA917840000     
INS021007364175                                   1754 DANIELLE WAY                                                                                   
INS031007364175     UPLAND               CA9178400005555555555H5555555555O           0107104              48-1273715 0122993853                       
INS041007364175     00000685919290000017868300000405657120000004452495    AF05      FL1            A                                                  
INS051007364175                                                                                        010                                            
INS010011007384785     HENRIETTA MOODY               2410    MADISON AVE                                         BALTIMORE            MD212170000     
INS021007384785                                   2410 Madison Ave                                                                                    
INS031007384785     Baltimore            MD2121700004102317000H4106690026O           0109094              48-1273715 0123138667                       
INS041007384785     00000428037220000019927000000199331120000004555065    AF05      FL1            A                                                  
INS051007384785                                                                                        021                                            
INS010011007386293     TONY DIAZ                     2600  N MULLIGAN AVE                                        CHICAGO              IL606390000     
INS021007386293                                   2600 N Mulligan Ave                                                                                 
INS031007386293     Chicago              IL6063900000000000000H7737332180O           0107094              52-0883107 1701635315                       
INS041007386293     00000278574600000015908800000198859120000004533986    AF05      FL1            A                                                  
INS051007386293                                                                                        010                                            
INS010011007411117     ANTHONY MCCLEAN               862     CENTRE ST                                           BROCKTON             MA023010000     
INS021007411117                                   1591 PO BOX                                                                                         
INS031007411117     BROCKTON             MA0230300001111111111H6174364419O           0107094              52-0883107 1701037706                       
INS041007411117     00000358774090000022726100000272887120000006208011LUSIAB01      EL1            A                                                  
INS051007411117     ADDED U TO MAN CODE INCLUSION                                                      013                                            
INS010011007429283     TOMMY L DUONG                  13187  HOLLISTER STREET                                    HESPERIA             CA923440000     
INS021007429283                                   9851 BOLSA AVE #108                                                                                 
INS031007429283     WESTMINSTER          CA9268300001111111111H8663421139O           0101104              48-1273715 0123008438                       
INS041007429283     00000347232550000012808700000140237120000003194371    AE02      AL1            A                                                  
INS051007429283     CHANGED TYPE P: TO AN A NO CONTACT INSPECTION                                      010                                            
INS010011007465857     DORA BALLA                      9244  GLEN MOOR LANE                                      PORT RICHEY          FL346680000     
INS021007465857     LASZLO BALLA                  9244 GLEN MOOR LANE                                                                                 
INS031007465857     Port Richey          FL3466800007277897864H7278483313O           0101114              48-1273715 0123135612                       
INS041007465857     00000124035850000002958200000101815120000000437994    AD07      BL1            A                                                  
INS051007465857                                                                                        010                                            
INS010011007484031     WALTERIO MORENO               5579    CROSSBILL LN                                        EL DORADO            CA956230000     
INS021007484031                                   5579 CROSSBILL LN                                                                                   
INS031007484031     EL DORADO            CA9562300005306212532H0000000000O           0108104              00-0000000 0123258881                       
INS041007484031     00000288000000000005775000000165000120000000057750    AD07      BL1            A                                                  
INS051007484031                                                                                        010                                            
INS010011007522921     CECILIA M LE                    2172  PALERMO                                             TUSTIN               CA927820000     
INS021007522921                                   2172 PALERMO STREET                                                                                 
INS031007522921     TUSTIN               CA9278200000000000000H0000000000O           0110094              48-1273715 0123175785                       
INS041007522921     00000811066220000018271200000383538120000007469934    AE02      AL1            A                                                  
INS051007522921     CHANGED TYPE P: TO AN A NO CONTACT INSPECTION                                      010                                            
INS010011007526179     FRANCIS P FERNANDO            3550    NEWPORT BAY DR                                      ALPHARETTA           GA300050000     
INS021007526179                                   3550 NEWPORT BAY DRIVE                                                                              
INS031007526179     Alpharetta           GA3000500005555555555H5555555555O           0110104              48-1273715 0123398069                       
INS041007526179     00000420737000000003615600000325677120000002279439    AF05      FL1            A                                                  
INS051007526179                                                                                        010                                            
INS010011007699505     ELAINE M LAKY                    842  KINGS POINT DR E                                    ADDISON              IL601010000     
INS021007699505                                   842 KINGS POINT DRIVE EAST                                                                          
INS031007699505     ADDISON              IL6010100006305193327H1111111111O           0101104              00-0000000 0123359241                       
INS041007699505     00000300800000000014100000000188000120000004846664    AE02      AL1            A                                                  
INS051007699505     CHANGED TYPE P: TO AN A NO CONTACT INSPECTION                                      010                                            
INS010011007711409     RICHARD C SHAW                1849    CHESTWOOD DR                                        VIRGINIA BEACH       VA234560000     
INS021007711409                                   801 DASA LEO CT                                                                                     
INS031007711409     VIRGINIA BCH         VA2345600001111111111H7574997990O           0102114              00-0000000 123320523                        
INS041007711409     00000324294300000002913500000197908120000000622859    AD07      BL1            A                                                  
INS051007711409                                                                                        010                                            
INS010011007729385     KAREN CONDON                  55    N LIBERTY ST                                          MIDDLETON            MA019490000     
INS021007729385     DEREK M CONDON                55 North Liberty Street                                                                             
INS031007729385     Middleton            MA0194900009783606104H9783040141O           0101114              48-1273715 0123293884                       
INS041007729385     00000340655230000002547500000231415120000000945925    AD07      BL1            A                                                  
INS051007729385                                                                                        010                                            
INS010011007752817     GEORGE W SMITH                49      EUNICE PATH                                         DALLAS               GA301320000     
INS021007752817                                   PO BOX 2454                                                                                         
INS031007752817     Dallas               GA3013200001111111111H7704451046O           0102104              00-0000000 123582976                        
INS041007752817     00000216526110000010800600000129158120000002124078    AF05      FL1            A                                                  
INS051007752817                                                                                        010                                            
INS010011007805789     CHRISTOPHER M ALESZCZYK          263  BLACK BARON DRIVE                                   TOWNSHIP OF DELRAN   NJ080750000     
INS021007805789                                   263 BLACK BARON DRIVE                                                                               
INS031007805789     TWP OF DELRAN        NJ0807500008564614201H8567648898O           0103104              52-0883107 1701622196                       
INS041007805789     00000216823730000011744000000184018120000002714336    AF05      FL1            A                                                  
INS051007805789                                                                                        010                                            
INS010011007806761     LETICIA A MANCHEGO            10760   LOUISA DR                                           LA MESA              CA919410000     
INS021007806761                                   10760 LOUISA DR                                                                                     
INS031007806761     LA MESA              CA9194100006196701085H6196705083O           0112104              52-0883107 1701634750                       
INS041007806761     00000289975010000000992400000259376120000001306804    AD07      BL1            A                                                  
INS051007806761                                                                                        010                                            
INS010011007853789     DOREEN GAIL OGAWA MCLAIN      3126    KILLARNEY LN                                        COSTA MESA           CA926260000     
INS021007853789                                   3126 Killarney Lane                                                                                 
INS031007853789     Costa Mesa           CA9262600001111111111H1111111111O           0107094              48-1273715 0123446231                       
INS041007853789     00000416624210000022620100000244304120000006528453    AF05      FL1            A                                                  
INS051007853789                                                                                        010                                            
INS010011007867169     KURT E MELLO                  122     WEYMOUTH AVE                                        HOLBROOK             MA023430000     
INS021007867169                                   122 weymouth street                                                                                 
INS031007867169     Holbrook             MA0234300007812464882H1111111111O           0112104              48-1273715 123755663                        
INS041007867169     00000221859730000004274000000168325120000000884365    AD07      BL1            A                                                  
INS051007867169                                                                                        010                                            
INS010011007877077     KRISTI LYNN MEGITT            59      BURNSIDE TER                                        SPRINGFIELD          MA011180000     
INS021007877077     REGINALD R MEGITT             59 BURNSIDE TERRACE                                                                                 
INS031007877077     SPRINGFIELD          MA0111800004139499294H0000000000O           0111104              48-1273715 0123645078                       
INS041007877077     00000103977990000002094300000099148120000000610722    AD07      BL1            A                                                  
INS051007877077                                                                                        010                                            
INS010011007885823     GARY JENNINGS REID              6263  WEST COPPER CLOUD LN                                WEST JORDAN          UT840880000     
INS021007885823                                   6263 West Copper Cloud Lane                                                                         
INS031007885823     WEST JORDAN          UT8408100008012826346H1111111111O           0102114              48-1273715 0123844134                       
INS041007885823     00000242334150000010360600000141789120000000528973    AD07      BL1            A                                                  
INS051007885823                                                                                        010                                            
INS010011007922295     NORMA E FLORIAN               1436    MARGARET ST                                         SAINT PAUL           MN551060000     
INS021007922295                                   1436 MARGARET ST                                                                                    
INS031007922295     SAINT PAUL           MN5510600006666666666H6666666666O           0101114              00-0000000 123789742                        
INS041007922295     00000164189530000000537500000100908120000000409007    AD07      BL1            A                                                  
INS051007922295                                                                                        010                                            
INS010011007964511     JOSEPH P CONLEY                   23  LYNNE AVENUE          12                            TYNGSBOROUGH         MA018790000     
INS021007964511     CATHLEEN CONLEY               23 LYNNE AVENUE                                                                                     
INS031007964511     TYNGSBOROUGH         MA0187900007819357353H7812484522O           0110094              52-0883107 1701621865                       
INS041007964511     00000177904830000015439200000166204120000003243358    AD07      BL1            A                                                  
INS051007964511                                                                                        016                                            
INS010011007974965     KUN SHIK KIM                   10436  BROOKHURST AVENUE                                   SAN DIEGO            CA921260000     
INS021007974965                                   10436 Brookhurst Avenue                                                                             
INS031007974965     SAN DIEGO            CA9212600001111111111H0000000000O           0103104              00-0000000 123901378                        
INS041007974965     00000598725670000028705400000346373120000005274284LUSIAB01      EL1            A                                                  
INS051007974965     ADDED U TO MAN CODE INCLUSION                                                      010                                            
INS010011007978735     MARTHA ATLAS TRACCONI            266  TRANQUIL DR                                         PARADISE             CA959690000     
INS021007978735                                   266 TRANQUIL DR                                                                                     
INS031007978735     PARADISE             CA9596900005308769082H9999999999O           0108104              52-0883107 1701823939                       
INS041007978735     00000278479770000001398600000177087120000001607769    AD07      BL1            A                                                  
INS051007978735                                                                                        010                                            
INS010011008009233     JENNIFER GREELEY              76      JARVIS ST                                           PEMBERTON            NJ080680000     
INS021008009233     DAVID GREELEY                 12136 FOX BLOOM AVE                                                                                 
INS031008009233     GIBSONTON            FL3353400008136720749H8136641304O           0106094              48-1273715 0123888137                       
INS041008009233     00000102008950000007095600000100727120000002382673    AE02      AL1            A                                                  
INS051008009233     CHANGED TYPE P: TO AN A NO CONTACT INSPECTION                                      010                                            
INS010011008009803     MICHELLE MAGUIRE              2334  E SERGEANT ST                                         PHILADELPHIA         PA191250000     
INS021008009803                                   2334 E SERGEANT ST                                                                                  
INS031008009803     PHILADELPHIA         PA1912500002672582835H2672582835O           0102114              48-1273715 123922247                        
INS041008009803     00000108280220000003645800000089985120000000306413    AD07      BL1            A                                                  
INS051008009803                                                                                        021                                            
INS010011008021691     CARMEN VILLANUEVA             3876    WERTZ DR                                            WOODBRIDGE           VA221930000     
INS021008021691                                   3876 Wertz Drive                                                                                    
INS031008021691     Woodbridge           VA2219300007038970168H1111111111O           0107104              52-0883107 1701816374                       
INS041008021691     00000346116560000018726100000227508120000002496877    AF05      FL1            A                                                  
INS051008021691                                                                                        010                                            
INS010011008022715     MARCIA L MUNNS                4213    KRAFT AVE                                           STUDIO CITY          CA916040000     
INS021008022715                                   4213 KRAFT AVE                                                                                      
INS031008022715     STUDIO CITY          CA9160400008182323159H8182323159O           0102104              00-0000000 123922905                        
INS041008022715     00000674572160000022486400000281072120000000224864    AF05      FL1            A                                                  
INS051008022715                                                                                        010                                            
INS010011008027573     HARJIT SINGH WALIA            87 29   254TH ST                                            BELLEROSE            NY114260000     
INS021008027573                                   87-29 254TH STREET                                                                                  
INS031008027573     BELLEROSE            NY1142600009999999999H7183435950O           0107094              52-0883107 1701831576                       
INS041008027573     00000403577860000013522500000270465120000006085455    AF05      FL1            A                                                  
INS051008027573                                                                                        010                                            
INS010011008030841     EARNEST WESTMORELAND          6416    RAMEY AVE                                           FORT WORTH           TX761120000     
INS021008030841     MARION M WESTMORELAND         6416 Ramey Avenue                                                                                   
INS031008030841     Fort Worth           TX7611200008174966123H0000000000O           0103104              48-1273715 123657604                        
INS041008030841     00000057852590000002215700000043545120000000633229    AD07      BL1            A                                                  
INS051008030841                                                                                        010                                            
INS010011008041533     PAMELA A MCHENRY              66      DRIFTWAY RD                                         DANBURY              CT068110000     
INS021008041533                                   66 DRIFTWAY ROAD                                                                                    
INS031008041533     DANBURY              CT0681100002037483949H0000000000O           0104104              52-0883107 1701831603                       
INS041008041533     00000262557770000018919600000261798120000003592570    AF05      FL1            A                                                  
INS051008041533                                                                                        010                                            
INS010011008051151     DAWN COZIER                     2810  BEVERLY ROAD                                        BROOKLYN             NY112260000     
INS021008051151                                   2810 BEVERLY ROAD                                                                                   
INS031008051151     Brooklyn             NY1122600007182873140H7182826071O           0112084              48-1273715 123968438                        
INS041008051151     00000559734090000018835400000314850120000000188354    AF05      FL1            A                                                  
INS051008051151                                                                                        012                                            
INS010011008055731     PATRICIA LOPEZ                  3027  BOSSWOOD COURT                                      GRAND PRAIRIE        TX750520000     
INS021008055731     BUENAVENTURA UMANZOR          3027 Bosswood CT                                                                                    
INS031008055731     Grand Prairie        TX7505200004697740963H4697740963O           0109104              48-1273715 123884014                        
INS041008055731     00000100575840000006991300000121636120000001067793    AD07      BL1            A                                                  
INS051008055731                                                                                        010                                            
INS010011008097733     JACOB KURIAN                  183     SUNFLOWER LN                                        ISLANDIA             NY117490000     
INS021008097733     SHEEBA ABRAHAM                101 JACKSON AVE APT 3G                                                                              
INS031008097733     MINEOLA              NY1150100006313436152H0000000000O           0106094              00-0000000 124011940                        
INS041008097733     00000287723940000008580000000269601120000006286623    AE02      AL1            A                                                  
INS051008097733     CHANGED TYPE P: TO AN A NO CONTACT INSPECTION                                      010                                            
INS010011008099853     NADINE GUERRIER               65    NW207TH ST                                            MIAMI                FL331690000     
INS021008099853     FOCZA ALADIN                  65 NW 207 Street                                                                                    
INS031008099853     Miami                FL3316900003053071793H3056925600O           0103094              00-0000000 124069399                        
INS041008099853     00000219926470000012795500000153495120000004675206    AF05      FL1            A                                                  
INS051008099853                                                                                        010                                            
INS010011008118679     WENDELL C LORD                2648    PALASTRO WAY                                        OCOEE                FL347610000     
INS021008118679     DOLLY D LORD                  2648 PALASTRO WAY                                                                                   
INS031008118679     OCOEE                FL3476100003522843307H3522843307O           0110094              52-0883107 1701816507                       
INS041008118679     00000430640360000025429100000268872120000005314736    AF05      FL1            A                                                  
INS051008118679                                                                                        010                                            
INS010011008137695     MARCO ANT BALLESTEROSCONTRERAS2509    SAN EFRAIN                                          MISSION              TX785720000     
INS021008137695     MAYRA YANNET GONZALEZ SANDOVAL2509 SAN EFRAIN                                                                                     
INS031008137695     MISSION              TX7857200009568904280H9568904280O           0101114              00-0000000 123982318                        
INS041008137695     00000210397710000000000000000330331120000001425923    AF05      FL1            A                                                  
INS051008137695                                                                                        010                                            
INS010011008171819     MANUELA P SMITH                  501  CAMBRIDGE DRIVE                                     BENICIA              CA945100000     
INS021008171819                                   501 CAMBRIDGE DR                                                                                    
INS031008171819     BENICIA              CA9451000007075481704H5103074590O           0101114              48-1273715 124071974                        
INS041008171819     00000520652350000000973900000211190120000000854499    AD07      BL1            A                                                  
INS051008171819                                                                                        010                                            
INS010011008236323     SEAN B MCMANUS                21791   KENNISON AVE                                        EUCLID               OH441230000     
INS021008236323     CHRISTINE MCMANUS             21791 KENNISON AVE                                                                                  
INS031008236323     Euclid               OH4412300004404780316H1111111111O           0101114              48-1273715 123925022                        
INS041008236323     00000106669640000000461800000071473120000000295726    AD07      BL1            A                                                  
INS051008236323                                                                                        010                                            
INS010011008249433     MILKO NUNEZ                   67      GRAY ST               65-67                         PATERSON             NJ075010000     
INS021008249433     ANA DEL ROCIO NUNEZ           65-67 GRAY STREET                                                                                   
INS031008249433     PATERSON             NJ0750100001111111111H2018258300O           0105084              00-0000000 124101824                        
INS041008249433     00000286150350000031713000000249610120000009303090    AF05      FL1            A                                                  
INS051008249433                                                                                        012                                            
INS010011008256479     NATALIE E CONTE               63      SCHLEY AVE                                          STATEN ISLAND        NY103080000     
INS021008256479                                   63 Schley Avenue                                                                                    
INS031008256479     Staten Island        NY1030800007189667523H7184350786O           0104084              48-1273715 123936042                        
INS041008256479     00000452614760000028400400000339709120000012918100    AE02      AL1            A                                                  
INS051008256479     CHANGED TYPE P: TO AN A NO CONTACT INSPECTION                                      010                                            
INS010011008281337     KENNETH WHITE                 11380   NIAGARA ST                                          FRENCH GULCH         CA960330000     
INS021008281337     DEBORAH WHITE                 PO BOX 226                                                                                          
INS031008281337     FRENCH GULCH         CA9603300000000000000H5306046084O           0101114              48-1273715 124171199                        
INS041008281337     00000334728310000000854300000240060120000000905354    AD07      BL1            A                                                  
INS051008281337                                                                                        010                                            
INS010011008282467     ERIC VAN ORDEN                141     WOODBRIDGE AVE                                      SEWAREN              NJ070770000     
INS021008282467                                   141 Woodbridge Avenue                                                                               
INS031008282467     Sewaren              NJ0707700007327500366H0000000000O           0112084              00-0000000 124183209                        
INS041008282467     00000306888270000016349200000116778120000004000996    AE02      AL1            A                                                  
INS051008282467     CHANGED TYPE P: TO AN A NO CONTACT INSPECTION                                      012                                            
INS010011008301895     RACHELLE ROBINSON                 72  28TH STREET                                         WYANDANCH            NY117980000     
INS021008301895                                   72 SOUTH 28th STREET                                                                                
INS031008301895     Wyandanch            NY1179800000000000000H5163567612O           0101104              52-0883107 1702035808                       
INS041008301895     00000308000000000006873300000263348120000004282301    AF05      FL1            A                                                  
INS051008301895                                                                                        010                                            
INS010011008304139     DENISE DELCY                  7777    BILTMORE BLVD                                       HOLLYWOOD            FL330230000     
INS021008304139                                   7777 BILTMORE BOULEVARD                                                                             
INS031008304139     HOLLYWOOD            FL3302300003059499915H7863557299O           0104104              52-0883107 1702246204                       
INS041008304139     00000253066200000010011600000166866120000002359492    AF05      FL1            A                                                  
INS051008304139                                                                                        010                                            
INS010011008332841     ROBERTO C CERON                 1447  FAIRVIEW TRAIL                                      LAWRENCEVILLE        GA300430000     
INS021008332841                                   5883 HILLSIDE DR                                                                                    
INS031008332841     DORAVILLE            GA3034000001111111111H9999999999O           0108104              52-0883107 1702060845                       
INS041008332841     00000096139560000000585400000080792120000000732982    AF05      FL1            A                                                  
INS051008332841                                                                                        010                                            
INS010011008346569     SCOTT S HOUK                     128  PEPPER TREE CRESCENT                                ROYAL PALM BEACH     FL334110000     
INS021008346569     SANDRA D HOUK                 128 Pepper Tree Crescent                                                                            
INS031008346569     West Palm Beach      FL3341100005613331096H9543584800O           0108094              48-1273715 124095681                        
INS041008346569     00000331106070000012492000000170455120000003745014    AF05      FL1            A                                                  
INS051008346569                                                                                        010                                            
INS010011008350793     PATRICIA D FIELDS             1220  S 13TH ST                                             TACOMA               WA984050000     
INS021008350793                                   1220 SOUTH 13TH STREET                                                                              
INS031008350793     TACOMA               WA9840500000000000000H2532829051O           0107104              48-1273715 124235895                        
INS041008350793     00000175549870000014761600000140679120000001554406    AF05      FL1            A                                                  
INS051008350793                                                                                        010                                            
INS010011008373191     ARBELLA ORSHAN                 18126  FLYNN DRIVE           61609                         CANYON COUNTRY       CA913870000     
INS021008373191                                   27658 TARYN DR                                                                                      
INS031008373191     SAUGUS               CA9135000006612962982H8183418878O           0105104              52-0904874 330666037                        
INS041008373191     00000308000000000008191400000247546120000002698882    AF05      FL1            A                                                  
INS051008373191                                                                                        016                                            
INS010011008375287     KENT L SHAMER                   2410  LAWNDALE ROAD                                       FINKSBURG            MD210480000     
INS021008375287     RICHARD K SHAMER              2410 Lawndale Road                                                                                  
INS031008375287     Finksburg            MD2104800004108713787H4103868388O           0112104              00-0000000 124235600                        
INS041008375287     00000381208570000005045600000285828120000001479596LUSIAB01      EL1            A                                                  
INS051008375287     ADDED U TO MAN CODE INCLUSION                                                      010                                            
INS010011008397679     ALEJANDRA MONDRAGON              997  SAGECREST DRIVE                                     SAN JACINTO          CA925830000     
INS021008397679                                   997 SAGECREST DRIVE                                                                                 
INS031008397679     SAN JACINTO          CA9258300009516653289H9512943098O           0110104              00-0000000 124384323                        
INS041008397679     00000381336950000002527600000157696120000001173268    AD07      BL1            A                                                  
INS051008397679                                                                                        010                                            
INS010011008410167     JAVIEL H VELASQUEZ                36  SPRINGFIELD AVE                                     GREENLAWN            NY117400000     
INS021008410167     MARIA E REYES                 36 SPRINGFIELD AVE                                                                                  
INS031008410167     GREENLAWN            NY1174000006316518374H1111111111O           0106104              52-0883107 1702883683                       
INS041008410167     00000327267490000006732000000296862120000003332802    AD07      BL1            A                                                  
INS051008410167                                                                                        010                                            
INS010011008416917     EVELYN MARSHALL                   59  COLLEGE DRIVE                                       EDISON               NJ088170000     
INS021008416917     DEAN A MARSHALL               59 COLLEGE DR                                                                                       
INS031008416917     EDISON               NJ0881768877322070050H0000000000O           0109104              48-1273715 124177825                        
INS041008416917     00000165850760000004850600000179005120000001518822    AD07      BL1            A                                                  
INS051008416917                                                                                        016                                            
INS010011008421297     ANTOLIN ROMERO                  1729  IMPERIAL HIGHWA       -1731                         LOS ANGELES          CA900590000     
INS021008421297                                   1729 1731 EAST IMPERIAL HWY                                                                         
INS031008421297     LOS ANGELES          CA9005900001111111111H3235477586O           0105104              52-0883107 1702245900                       
INS041008421297     00000367906120000011501400000235055120000002947829    AF05      FL1            A                                                  
INS051008421297                                                                                        012                                            
INS010011008497669     LUZ MARINA ACUNA                2714  AUSTIN AVENUE                                       CHICAGO              IL606390000     
INS021008497669                                   2714 North Austin AVE                                                                               
INS031008497669     Chicago              IL6063900007736220341H8472567178O           0109094              52-0883107 1702477665                       
INS041008497669     00000259278330000022596600000229606120000004816350    AF05      FL1            A                                                  
INS051008497669                                                                                        012                                            
INS010011008522219     EDVIN LEMUS                   933     HUNTINGTON RD                                       STRATFORD            CT066140000     
INS021008522219                                   933 HUNTINGTON ROAD                                                                                 
INS031008522219     STRATFORD            CT0661400000000000000H2032964606O           0106104              52-0883107 1702446025                       
INS041008522219     00000253528670000012835800000204055120000002487071    AF05      FL1            A                                                  
INS051008522219                                                                                        010                                            
INS010011008526269     JOON GANG                      11120  PENTLAND DOWNS                                      LAS VEGAS            NV891410000     
INS021008526269                                   11120 Pentland Downs Street                                                                         
INS031008526269     Las Vegas            NV8914100007025670451H1111111111O           0106104              52-0883107 1702439701                       
INS041008526269     00000350000000000018958000000248094120000002918614    AF05      FL1            A                                                  
INS051008526269                                                                                        010                                            
INS010011008527077     SYED SHAMS                    7376    MAURY RD                                            WINDSOR MILL         MD212440000     
INS021008527077                                   7376 MAURY ROAD                                                                                     
INS031008527077     WINDSOR MILL         MD2124400004105949111H4106005595O           0110104              48-1273715 124421566                        
INS041008527077     00000194042570000002544400000155516120000001137136    AD07      BL1            A                                                  
INS051008527077                                                                                        021                                            
INS010011008530519     GARY T LAM                      8403  ARTSON STREET                                       ROSEMEAD             CA917700000     
INS021008530519                                   8403 ARTSON ST                                                                                      
INS031008530519     Rosemead             CA9177000005555555555H5555555555O           0111094              52-0883107 1702894080                       
INS041008530519     00000387016960000023650200000349509120000006213637LUSIAB01      EL1            A                                                  
INS051008530519     ADDED U TO MAN CODE INCLUSION                                                      010                                            
INS010011008553925     STAVROULA KATSAROS            26      PAGNOTTA DR                                         PORT JEFFERSON STATIONY117760000     
INS021008553925                                   26 Pagnotta Drive                                                                                   
INS031008553925     Port Jefferson StatioNY1177600006318288964H6318286865O           0101114              48-1273715 124083387                        
INS041008553925     00000508485040000002507200000295533120000001215022    AD07      BL1            A                                                  
INS051008553925                                                                                        010                                            
INS010011008571117     JENNIFER C MORENO               2701  ILLINOIS AVENUE                                     SOUTH GATE           CA902800000     
INS021008571117                                   228 N 12TH ST                                                                                       
INS031008571117     MONTEBELLO           CA9064000001111111111H1112713240O           0111094              00-0000000 124529943                        
INS041008571117     00000322908340000003346100000161977120000003059580    AD06      BL1            A                                                  
INS051008571117                                                                                        010                                            
INS010011008585729     MICHELLE SHANNON NIEMEYER     5004    GLENCAIRN DR                                        COLUMBIA             MO652030000     
INS021008585729                                   5004 glencairn                                                                                      
INS031008585729     Columbia             MO6520300005734422143H5738826688O           0111104              48-1273715 124483636                        
INS041008585729     00000139983540000002439600000099029120000000619690    AE02      AL1            A                                                  
INS051008585729     CHANGED TYPE P: TO AN A NO CONTACT INSPECTION                                      010                                            
INS010011008627901     MELVIN K ROYSTER              803     BRIDEL PATH                                         BEL AIR              MD210140000     
INS021008627901                                   803 Bridel Path                                                                                     
INS031008627901     Bel Air              MD2101400001111111111H4108773202O           0111094              52-0883107 1702477818                       
INS041008627901     00000386627800000035735800000310013120000006019362    AE02      AL1            A                                                  
INS051008627901     CHANGED TYPE P: TO AN A NO CONTACT INSPECTION                                      010                                            
INS010011008641167     MICHAEL F FIGUEROA            7845    RETRIEVER ST                                        CORONA               CA928800000     
INS021008641167                                   7845 RETRIEVER STREET                                                                               
INS031008641167     CORONA               CA9288000007145956710H9512809987O           0102114              48-1273715 124622474                        
INS041008641167     00000423012070000005937000000250638120000000811284    AD07      BL1            A                                                  
INS051008641167                                                                                        010                                            
INS010011008659151     JUSTINA UDO                      202  GLENWOOD AVENUE                                     YONKERS              NY107030000     
